{
  "contractName": "GovernorContract",
  "abi": [
    {
      "inputs": [
        {
          "internalType": "contract IVotes",
          "name": "tokenAddress",
          "type": "address"
        },
        {
          "internalType": "contract TimelockController",
          "name": "timelock",
          "type": "address"
        }
      ],
      "stateMutability": "nonpayable",
      "type": "constructor"
    },
    {
      "inputs": [],
      "name": "Empty",
      "type": "error"
    },
    {
      "anonymous": false,
      "inputs": [
        {
          "indexed": false,
          "internalType": "uint256",
          "name": "proposalId",
          "type": "uint256"
        }
      ],
      "name": "ProposalCanceled",
      "type": "event"
    },
    {
      "anonymous": false,
      "inputs": [
        {
          "indexed": false,
          "internalType": "uint256",
          "name": "proposalId",
          "type": "uint256"
        },
        {
          "indexed": false,
          "internalType": "address",
          "name": "proposer",
          "type": "address"
        },
        {
          "indexed": false,
          "internalType": "address[]",
          "name": "targets",
          "type": "address[]"
        },
        {
          "indexed": false,
          "internalType": "uint256[]",
          "name": "values",
          "type": "uint256[]"
        },
        {
          "indexed": false,
          "internalType": "string[]",
          "name": "signatures",
          "type": "string[]"
        },
        {
          "indexed": false,
          "internalType": "bytes[]",
          "name": "calldatas",
          "type": "bytes[]"
        },
        {
          "indexed": false,
          "internalType": "uint256",
          "name": "startBlock",
          "type": "uint256"
        },
        {
          "indexed": false,
          "internalType": "uint256",
          "name": "endBlock",
          "type": "uint256"
        },
        {
          "indexed": false,
          "internalType": "string",
          "name": "description",
          "type": "string"
        }
      ],
      "name": "ProposalCreated",
      "type": "event"
    },
    {
      "anonymous": false,
      "inputs": [
        {
          "indexed": false,
          "internalType": "uint256",
          "name": "proposalId",
          "type": "uint256"
        }
      ],
      "name": "ProposalExecuted",
      "type": "event"
    },
    {
      "anonymous": false,
      "inputs": [
        {
          "indexed": false,
          "internalType": "uint256",
          "name": "proposalId",
          "type": "uint256"
        },
        {
          "indexed": false,
          "internalType": "uint256",
          "name": "eta",
          "type": "uint256"
        }
      ],
      "name": "ProposalQueued",
      "type": "event"
    },
    {
      "anonymous": false,
      "inputs": [
        {
          "indexed": false,
          "internalType": "uint256",
          "name": "oldProposalThreshold",
          "type": "uint256"
        },
        {
          "indexed": false,
          "internalType": "uint256",
          "name": "newProposalThreshold",
          "type": "uint256"
        }
      ],
      "name": "ProposalThresholdSet",
      "type": "event"
    },
    {
      "anonymous": false,
      "inputs": [
        {
          "indexed": false,
          "internalType": "uint256",
          "name": "oldQuorumNumerator",
          "type": "uint256"
        },
        {
          "indexed": false,
          "internalType": "uint256",
          "name": "newQuorumNumerator",
          "type": "uint256"
        }
      ],
      "name": "QuorumNumeratorUpdated",
      "type": "event"
    },
    {
      "anonymous": false,
      "inputs": [
        {
          "indexed": false,
          "internalType": "address",
          "name": "oldTimelock",
          "type": "address"
        },
        {
          "indexed": false,
          "internalType": "address",
          "name": "newTimelock",
          "type": "address"
        }
      ],
      "name": "TimelockChange",
      "type": "event"
    },
    {
      "anonymous": false,
      "inputs": [
        {
          "indexed": true,
          "internalType": "address",
          "name": "voter",
          "type": "address"
        },
        {
          "indexed": false,
          "internalType": "uint256",
          "name": "proposalId",
          "type": "uint256"
        },
        {
          "indexed": false,
          "internalType": "uint8",
          "name": "support",
          "type": "uint8"
        },
        {
          "indexed": false,
          "internalType": "uint256",
          "name": "weight",
          "type": "uint256"
        },
        {
          "indexed": false,
          "internalType": "string",
          "name": "reason",
          "type": "string"
        }
      ],
      "name": "VoteCast",
      "type": "event"
    },
    {
      "anonymous": false,
      "inputs": [
        {
          "indexed": true,
          "internalType": "address",
          "name": "voter",
          "type": "address"
        },
        {
          "indexed": false,
          "internalType": "uint256",
          "name": "proposalId",
          "type": "uint256"
        },
        {
          "indexed": false,
          "internalType": "uint8",
          "name": "support",
          "type": "uint8"
        },
        {
          "indexed": false,
          "internalType": "uint256",
          "name": "weight",
          "type": "uint256"
        },
        {
          "indexed": false,
          "internalType": "string",
          "name": "reason",
          "type": "string"
        },
        {
          "indexed": false,
          "internalType": "bytes",
          "name": "params",
          "type": "bytes"
        }
      ],
      "name": "VoteCastWithParams",
      "type": "event"
    },
    {
      "anonymous": false,
      "inputs": [
        {
          "indexed": false,
          "internalType": "uint256",
          "name": "oldVotingDelay",
          "type": "uint256"
        },
        {
          "indexed": false,
          "internalType": "uint256",
          "name": "newVotingDelay",
          "type": "uint256"
        }
      ],
      "name": "VotingDelaySet",
      "type": "event"
    },
    {
      "anonymous": false,
      "inputs": [
        {
          "indexed": false,
          "internalType": "uint256",
          "name": "oldVotingPeriod",
          "type": "uint256"
        },
        {
          "indexed": false,
          "internalType": "uint256",
          "name": "newVotingPeriod",
          "type": "uint256"
        }
      ],
      "name": "VotingPeriodSet",
      "type": "event"
    },
    {
      "inputs": [],
      "name": "BALLOT_TYPEHASH",
      "outputs": [
        {
          "internalType": "bytes32",
          "name": "",
          "type": "bytes32"
        }
      ],
      "stateMutability": "view",
      "type": "function",
      "constant": true
    },
    {
      "inputs": [],
      "name": "COUNTING_MODE",
      "outputs": [
        {
          "internalType": "string",
          "name": "",
          "type": "string"
        }
      ],
      "stateMutability": "pure",
      "type": "function",
      "constant": true
    },
    {
      "inputs": [],
      "name": "EXTENDED_BALLOT_TYPEHASH",
      "outputs": [
        {
          "internalType": "bytes32",
          "name": "",
          "type": "bytes32"
        }
      ],
      "stateMutability": "view",
      "type": "function",
      "constant": true
    },
    {
      "inputs": [
        {
          "internalType": "uint256",
          "name": "proposalId",
          "type": "uint256"
        },
        {
          "internalType": "uint8",
          "name": "support",
          "type": "uint8"
        }
      ],
      "name": "castVote",
      "outputs": [
        {
          "internalType": "uint256",
          "name": "",
          "type": "uint256"
        }
      ],
      "stateMutability": "nonpayable",
      "type": "function"
    },
    {
      "inputs": [
        {
          "internalType": "uint256",
          "name": "proposalId",
          "type": "uint256"
        },
        {
          "internalType": "uint8",
          "name": "support",
          "type": "uint8"
        },
        {
          "internalType": "uint8",
          "name": "v",
          "type": "uint8"
        },
        {
          "internalType": "bytes32",
          "name": "r",
          "type": "bytes32"
        },
        {
          "internalType": "bytes32",
          "name": "s",
          "type": "bytes32"
        }
      ],
      "name": "castVoteBySig",
      "outputs": [
        {
          "internalType": "uint256",
          "name": "",
          "type": "uint256"
        }
      ],
      "stateMutability": "nonpayable",
      "type": "function"
    },
    {
      "inputs": [
        {
          "internalType": "uint256",
          "name": "proposalId",
          "type": "uint256"
        },
        {
          "internalType": "uint8",
          "name": "support",
          "type": "uint8"
        },
        {
          "internalType": "string",
          "name": "reason",
          "type": "string"
        }
      ],
      "name": "castVoteWithReason",
      "outputs": [
        {
          "internalType": "uint256",
          "name": "",
          "type": "uint256"
        }
      ],
      "stateMutability": "nonpayable",
      "type": "function"
    },
    {
      "inputs": [
        {
          "internalType": "uint256",
          "name": "proposalId",
          "type": "uint256"
        },
        {
          "internalType": "uint8",
          "name": "support",
          "type": "uint8"
        },
        {
          "internalType": "string",
          "name": "reason",
          "type": "string"
        },
        {
          "internalType": "bytes",
          "name": "params",
          "type": "bytes"
        }
      ],
      "name": "castVoteWithReasonAndParams",
      "outputs": [
        {
          "internalType": "uint256",
          "name": "",
          "type": "uint256"
        }
      ],
      "stateMutability": "nonpayable",
      "type": "function"
    },
    {
      "inputs": [
        {
          "internalType": "uint256",
          "name": "proposalId",
          "type": "uint256"
        },
        {
          "internalType": "uint8",
          "name": "support",
          "type": "uint8"
        },
        {
          "internalType": "string",
          "name": "reason",
          "type": "string"
        },
        {
          "internalType": "bytes",
          "name": "params",
          "type": "bytes"
        },
        {
          "internalType": "uint8",
          "name": "v",
          "type": "uint8"
        },
        {
          "internalType": "bytes32",
          "name": "r",
          "type": "bytes32"
        },
        {
          "internalType": "bytes32",
          "name": "s",
          "type": "bytes32"
        }
      ],
      "name": "castVoteWithReasonAndParamsBySig",
      "outputs": [
        {
          "internalType": "uint256",
          "name": "",
          "type": "uint256"
        }
      ],
      "stateMutability": "nonpayable",
      "type": "function"
    },
    {
      "inputs": [
        {
          "internalType": "address[]",
          "name": "targets",
          "type": "address[]"
        },
        {
          "internalType": "uint256[]",
          "name": "values",
          "type": "uint256[]"
        },
        {
          "internalType": "bytes[]",
          "name": "calldatas",
          "type": "bytes[]"
        },
        {
          "internalType": "bytes32",
          "name": "descriptionHash",
          "type": "bytes32"
        }
      ],
      "name": "execute",
      "outputs": [
        {
          "internalType": "uint256",
          "name": "",
          "type": "uint256"
        }
      ],
      "stateMutability": "payable",
      "type": "function",
      "payable": true
    },
    {
      "inputs": [
        {
          "internalType": "address",
          "name": "account",
          "type": "address"
        },
        {
          "internalType": "uint256",
          "name": "blockNumber",
          "type": "uint256"
        }
      ],
      "name": "getVotes",
      "outputs": [
        {
          "internalType": "uint256",
          "name": "",
          "type": "uint256"
        }
      ],
      "stateMutability": "view",
      "type": "function",
      "constant": true
    },
    {
      "inputs": [
        {
          "internalType": "address",
          "name": "account",
          "type": "address"
        },
        {
          "internalType": "uint256",
          "name": "blockNumber",
          "type": "uint256"
        },
        {
          "internalType": "bytes",
          "name": "params",
          "type": "bytes"
        }
      ],
      "name": "getVotesWithParams",
      "outputs": [
        {
          "internalType": "uint256",
          "name": "",
          "type": "uint256"
        }
      ],
      "stateMutability": "view",
      "type": "function",
      "constant": true
    },
    {
      "inputs": [
        {
          "internalType": "uint256",
          "name": "proposalId",
          "type": "uint256"
        },
        {
          "internalType": "address",
          "name": "account",
          "type": "address"
        }
      ],
      "name": "hasVoted",
      "outputs": [
        {
          "internalType": "bool",
          "name": "",
          "type": "bool"
        }
      ],
      "stateMutability": "view",
      "type": "function",
      "constant": true
    },
    {
      "inputs": [
        {
          "internalType": "address[]",
          "name": "targets",
          "type": "address[]"
        },
        {
          "internalType": "uint256[]",
          "name": "values",
          "type": "uint256[]"
        },
        {
          "internalType": "bytes[]",
          "name": "calldatas",
          "type": "bytes[]"
        },
        {
          "internalType": "bytes32",
          "name": "descriptionHash",
          "type": "bytes32"
        }
      ],
      "name": "hashProposal",
      "outputs": [
        {
          "internalType": "uint256",
          "name": "",
          "type": "uint256"
        }
      ],
      "stateMutability": "pure",
      "type": "function",
      "constant": true
    },
    {
      "inputs": [],
      "name": "name",
      "outputs": [
        {
          "internalType": "string",
          "name": "",
          "type": "string"
        }
      ],
      "stateMutability": "view",
      "type": "function",
      "constant": true
    },
    {
      "inputs": [
        {
          "internalType": "address",
          "name": "",
          "type": "address"
        },
        {
          "internalType": "address",
          "name": "",
          "type": "address"
        },
        {
          "internalType": "uint256[]",
          "name": "",
          "type": "uint256[]"
        },
        {
          "internalType": "uint256[]",
          "name": "",
          "type": "uint256[]"
        },
        {
          "internalType": "bytes",
          "name": "",
          "type": "bytes"
        }
      ],
      "name": "onERC1155BatchReceived",
      "outputs": [
        {
          "internalType": "bytes4",
          "name": "",
          "type": "bytes4"
        }
      ],
      "stateMutability": "nonpayable",
      "type": "function"
    },
    {
      "inputs": [
        {
          "internalType": "address",
          "name": "",
          "type": "address"
        },
        {
          "internalType": "address",
          "name": "",
          "type": "address"
        },
        {
          "internalType": "uint256",
          "name": "",
          "type": "uint256"
        },
        {
          "internalType": "uint256",
          "name": "",
          "type": "uint256"
        },
        {
          "internalType": "bytes",
          "name": "",
          "type": "bytes"
        }
      ],
      "name": "onERC1155Received",
      "outputs": [
        {
          "internalType": "bytes4",
          "name": "",
          "type": "bytes4"
        }
      ],
      "stateMutability": "nonpayable",
      "type": "function"
    },
    {
      "inputs": [
        {
          "internalType": "address",
          "name": "",
          "type": "address"
        },
        {
          "internalType": "address",
          "name": "",
          "type": "address"
        },
        {
          "internalType": "uint256",
          "name": "",
          "type": "uint256"
        },
        {
          "internalType": "bytes",
          "name": "",
          "type": "bytes"
        }
      ],
      "name": "onERC721Received",
      "outputs": [
        {
          "internalType": "bytes4",
          "name": "",
          "type": "bytes4"
        }
      ],
      "stateMutability": "nonpayable",
      "type": "function"
    },
    {
      "inputs": [
        {
          "internalType": "uint256",
          "name": "proposalId",
          "type": "uint256"
        }
      ],
      "name": "proposalDeadline",
      "outputs": [
        {
          "internalType": "uint256",
          "name": "",
          "type": "uint256"
        }
      ],
      "stateMutability": "view",
      "type": "function",
      "constant": true
    },
    {
      "inputs": [
        {
          "internalType": "uint256",
          "name": "proposalId",
          "type": "uint256"
        }
      ],
      "name": "proposalEta",
      "outputs": [
        {
          "internalType": "uint256",
          "name": "",
          "type": "uint256"
        }
      ],
      "stateMutability": "view",
      "type": "function",
      "constant": true
    },
    {
      "inputs": [
        {
          "internalType": "uint256",
          "name": "proposalId",
          "type": "uint256"
        }
      ],
      "name": "proposalSnapshot",
      "outputs": [
        {
          "internalType": "uint256",
          "name": "",
          "type": "uint256"
        }
      ],
      "stateMutability": "view",
      "type": "function",
      "constant": true
    },
    {
      "inputs": [
        {
          "internalType": "uint256",
          "name": "proposalId",
          "type": "uint256"
        }
      ],
      "name": "proposalVotes",
      "outputs": [
        {
          "internalType": "uint256",
          "name": "againstVotes",
          "type": "uint256"
        },
        {
          "internalType": "uint256",
          "name": "forVotes",
          "type": "uint256"
        },
        {
          "internalType": "uint256",
          "name": "abstainVotes",
          "type": "uint256"
        }
      ],
      "stateMutability": "view",
      "type": "function",
      "constant": true
    },
    {
      "inputs": [
        {
          "internalType": "address[]",
          "name": "targets",
          "type": "address[]"
        },
        {
          "internalType": "uint256[]",
          "name": "values",
          "type": "uint256[]"
        },
        {
          "internalType": "bytes[]",
          "name": "calldatas",
          "type": "bytes[]"
        },
        {
          "internalType": "bytes32",
          "name": "descriptionHash",
          "type": "bytes32"
        }
      ],
      "name": "queue",
      "outputs": [
        {
          "internalType": "uint256",
          "name": "",
          "type": "uint256"
        }
      ],
      "stateMutability": "nonpayable",
      "type": "function"
    },
    {
      "inputs": [],
      "name": "quorumDenominator",
      "outputs": [
        {
          "internalType": "uint256",
          "name": "",
          "type": "uint256"
        }
      ],
      "stateMutability": "view",
      "type": "function",
      "constant": true
    },
    {
      "inputs": [],
      "name": "quorumNumerator",
      "outputs": [
        {
          "internalType": "uint256",
          "name": "",
          "type": "uint256"
        }
      ],
      "stateMutability": "view",
      "type": "function",
      "constant": true
    },
    {
      "inputs": [
        {
          "internalType": "address",
          "name": "target",
          "type": "address"
        },
        {
          "internalType": "uint256",
          "name": "value",
          "type": "uint256"
        },
        {
          "internalType": "bytes",
          "name": "data",
          "type": "bytes"
        }
      ],
      "name": "relay",
      "outputs": [],
      "stateMutability": "nonpayable",
      "type": "function"
    },
    {
      "inputs": [
        {
          "internalType": "uint256",
          "name": "newProposalThreshold",
          "type": "uint256"
        }
      ],
      "name": "setProposalThreshold",
      "outputs": [],
      "stateMutability": "nonpayable",
      "type": "function"
    },
    {
      "inputs": [
        {
          "internalType": "uint256",
          "name": "newVotingDelay",
          "type": "uint256"
        }
      ],
      "name": "setVotingDelay",
      "outputs": [],
      "stateMutability": "nonpayable",
      "type": "function"
    },
    {
      "inputs": [
        {
          "internalType": "uint256",
          "name": "newVotingPeriod",
          "type": "uint256"
        }
      ],
      "name": "setVotingPeriod",
      "outputs": [],
      "stateMutability": "nonpayable",
      "type": "function"
    },
    {
      "inputs": [],
      "name": "timelock",
      "outputs": [
        {
          "internalType": "address",
          "name": "",
          "type": "address"
        }
      ],
      "stateMutability": "view",
      "type": "function",
      "constant": true
    },
    {
      "inputs": [],
      "name": "token",
      "outputs": [
        {
          "internalType": "contract IVotes",
          "name": "",
          "type": "address"
        }
      ],
      "stateMutability": "view",
      "type": "function",
      "constant": true
    },
    {
      "inputs": [
        {
          "internalType": "uint256",
          "name": "newQuorumNumerator",
          "type": "uint256"
        }
      ],
      "name": "updateQuorumNumerator",
      "outputs": [],
      "stateMutability": "nonpayable",
      "type": "function"
    },
    {
      "inputs": [
        {
          "internalType": "contract TimelockController",
          "name": "newTimelock",
          "type": "address"
        }
      ],
      "name": "updateTimelock",
      "outputs": [],
      "stateMutability": "nonpayable",
      "type": "function"
    },
    {
      "inputs": [],
      "name": "version",
      "outputs": [
        {
          "internalType": "string",
          "name": "",
          "type": "string"
        }
      ],
      "stateMutability": "view",
      "type": "function",
      "constant": true
    },
    {
      "stateMutability": "payable",
      "type": "receive",
      "payable": true
    },
    {
      "inputs": [
        {
          "internalType": "uint256",
          "name": "blockNumber",
          "type": "uint256"
        }
      ],
      "name": "getMyVoteWeight",
      "outputs": [
        {
          "internalType": "uint256",
          "name": "",
          "type": "uint256"
        }
      ],
      "stateMutability": "view",
      "type": "function",
      "constant": true
    },
    {
      "inputs": [],
      "name": "votingDelay",
      "outputs": [
        {
          "internalType": "uint256",
          "name": "",
          "type": "uint256"
        }
      ],
      "stateMutability": "view",
      "type": "function",
      "constant": true
    },
    {
      "inputs": [],
      "name": "votingPeriod",
      "outputs": [
        {
          "internalType": "uint256",
          "name": "",
          "type": "uint256"
        }
      ],
      "stateMutability": "view",
      "type": "function",
      "constant": true
    },
    {
      "inputs": [
        {
          "internalType": "uint256",
          "name": "blockNumber",
          "type": "uint256"
        }
      ],
      "name": "quorum",
      "outputs": [
        {
          "internalType": "uint256",
          "name": "",
          "type": "uint256"
        }
      ],
      "stateMutability": "view",
      "type": "function",
      "constant": true
    },
    {
      "inputs": [
        {
          "internalType": "uint256",
          "name": "proposalId",
          "type": "uint256"
        }
      ],
      "name": "state",
      "outputs": [
        {
          "internalType": "enum IGovernor.ProposalState",
          "name": "",
          "type": "uint8"
        }
      ],
      "stateMutability": "view",
      "type": "function",
      "constant": true
    },
    {
      "inputs": [
        {
          "internalType": "address[]",
          "name": "targets",
          "type": "address[]"
        },
        {
          "internalType": "uint256[]",
          "name": "values",
          "type": "uint256[]"
        },
        {
          "internalType": "bytes[]",
          "name": "calldatas",
          "type": "bytes[]"
        },
        {
          "internalType": "string",
          "name": "description",
          "type": "string"
        }
      ],
      "name": "propose",
      "outputs": [
        {
          "internalType": "uint256",
          "name": "",
          "type": "uint256"
        }
      ],
      "stateMutability": "nonpayable",
      "type": "function"
    },
    {
      "inputs": [],
      "name": "proposalThreshold",
      "outputs": [
        {
          "internalType": "uint256",
          "name": "",
          "type": "uint256"
        }
      ],
      "stateMutability": "view",
      "type": "function",
      "constant": true
    },
    {
      "inputs": [
        {
          "internalType": "bytes4",
          "name": "interfaceId",
          "type": "bytes4"
        }
      ],
      "name": "supportsInterface",
      "outputs": [
        {
          "internalType": "bool",
          "name": "",
          "type": "bool"
        }
      ],
      "stateMutability": "view",
      "type": "function",
      "constant": true
    }
  ],
  "bytecode": "0x6101606040523480156200001257600080fd5b5060405162003cf838038062003cf88339810160408190526200003591620004a4565b806004836000600260006040518060400160405280600b81526020016a26bc9033b7bb32b93737b960a91b81525080620000746200016e60201b60201c565b815160208084019190912082518383012060e08290526101008190524660a0818152604080517f8b73c3c69bb8fe3d512ecc4cf759cc79239f7b179b0ffacaa9a75d522b39400f81880181905281830187905260608201869052608082019490945230818401528151808203909301835260c00190528051940193909320919290916080523060c05261012052505082516200011a9250600091506020840190620003e5565b506200012890508362000189565b6200013382620001ca565b6200013e8162000271565b5050506001600160a01b0316610140526200015981620002b2565b5062000165816200037c565b5050506200051f565b6040805180820190915260018152603160f81b602082015290565b60045460408051918252602082018390527fc565b045403dc03c2eea82b81a0465edad9e2e7fc4d97e11421c209da93d7a93910160405180910390a1600455565b60008111620002305760405162461bcd60e51b815260206004820152602760248201527f476f7665726e6f7253657474696e67733a20766f74696e6720706572696f6420604482015266746f6f206c6f7760c81b60648201526084015b60405180910390fd5b60055460408051918252602082018390527f7e3f7f0708a84de9203036abaa450dccc85ad5ff52f78c170f3edb55cf5e8828910160405180910390a1600555565b60065460408051918252602082018390527fccb45da8d5717e6c4544694297c4ba5cf151d455c9bb0ed4fc7a38411bc05461910160405180910390a1600655565b6064811115620003375760405162461bcd60e51b815260206004820152604360248201527f476f7665726e6f72566f74657351756f72756d4672616374696f6e3a2071756f60448201527f72756d4e756d657261746f72206f7665722071756f72756d44656e6f6d696e616064820152623a37b960e91b608482015260a40162000227565b600880549082905560408051828152602081018490527f0553476bf02ef2726e8ce5ced78d63e26e602e4a2257b1f559418e24b4633997910160405180910390a15050565b600954604080516001600160a01b03928316815291831660208301527f08f74ea46ef7894f65eabfb5e6e695de773a000b47c529ab559178069b226401910160405180910390a1600980546001600160a01b0319166001600160a01b0392909216919091179055565b828054620003f390620004e3565b90600052602060002090601f01602090048101928262000417576000855562000462565b82601f106200043257805160ff191683800117855562000462565b8280016001018555821562000462579182015b828111156200046257825182559160200191906001019062000445565b506200047092915062000474565b5090565b5b8082111562000470576000815560010162000475565b6001600160a01b0381168114620004a157600080fd5b50565b60008060408385031215620004b857600080fd5b8251620004c5816200048b565b6020840151909250620004d8816200048b565b809150509250929050565b600181811c90821680620004f857607f821691505b6020821081036200051957634e487b7160e01b600052602260045260246000fd5b50919050565b60805160a05160c05160e0516101005161012051610140516137706200058860003960008181610876015281816119800152611e7f01526000611ffb0152600061204a0152600061202501526000611f7e01526000611fa801526000611fd201526137706000f3fe60806040526004361061024a5760003560e01c80637b3c71d311610139578063c28bc2fa116100b6578063ea0217cf1161007a578063ea0217cf146107b8578063eb9019d4146107d8578063ece40cc1146107f8578063f23a6e6114610818578063f8ce560a14610844578063fc0c546a1461086457600080fd5b8063c28bc2fa146106cc578063c59057e4146106ec578063d33219b41461070c578063dd4e2ba51461073e578063deaaa7cc1461078457600080fd5b8063a890c910116100fd578063a890c9101461062b578063ab58fb8e1461064b578063b58131b01461066b578063bc197c8114610680578063c01f9e37146106ac57600080fd5b80637b3c71d3146105a25780637d5e81e2146105c257806397c3d334146105e25780639a802a6d146105f6578063a7713a701461061657600080fd5b80633932abb1116101c7578063544ffc9c1161018b578063544ffc9c146104c357806354fd4d501461051857806356781388146105425780635f398a141461056257806370b0f6601461058257600080fd5b80633932abb1146103f75780633bccf4fd1461040c5780633e4f49e61461042c57806343859632146104595780635181d94b146104a357600080fd5b8063150b7a021161020e578063150b7a021461032c578063160cbed7146103705780632656227d146103905780632d63f693146103a35780632fe3e261146103c357600080fd5b806301ffc9a71461027257806302a251a3146102a757806303420181146102ca57806306f3f9e6146102ea57806306fdde031461030a57600080fd5b3661026d5730610258610898565b6001600160a01b03161461026b57600080fd5b005b600080fd5b34801561027e57600080fd5b5061029261028d366004612876565b6108b1565b60405190151581526020015b60405180910390f35b3480156102b357600080fd5b506102bc6108c2565b60405190815260200161029e565b3480156102d657600080fd5b506102bc6102e53660046129bb565b6108cd565b3480156102f657600080fd5b5061026b610305366004612a61565b6109c5565b34801561031657600080fd5b5061031f610a58565b60405161029e9190612ad6565b34801561033857600080fd5b50610357610347366004612afe565b630a85bd0160e11b949350505050565b6040516001600160e01b0319909116815260200161029e565b34801561037c57600080fd5b506102bc61038b366004612cda565b610aea565b6102bc61039e366004612cda565b610cea565b3480156103af57600080fd5b506102bc6103be366004612a61565b610dd7565b3480156103cf57600080fd5b506102bc7fb3b3f3b703cd84ce352197dcff232b1b5d3cfb2025ce47cf04742d0651f1af8881565b34801561040357600080fd5b506102bc610e0e565b34801561041857600080fd5b506102bc610427366004612d69565b610e19565b34801561043857600080fd5b5061044c610447366004612a61565b610e8f565b60405161029e9190612dcd565b34801561046557600080fd5b50610292610474366004612df5565b60008281526007602090815260408083206001600160a01b038516845260030190915290205460ff1692915050565b3480156104af57600080fd5b506102bc6104be366004612a61565b610e9a565b3480156104cf57600080fd5b506104fd6104de366004612a61565b6000908152600760205260409020805460018201546002909201549092565b6040805193845260208401929092529082015260600161029e565b34801561052457600080fd5b506040805180820190915260018152603160f81b602082015261031f565b34801561054e57600080fd5b506102bc61055d366004612e25565b610eb6565b34801561056e57600080fd5b506102bc61057d366004612e51565b610edf565b34801561058e57600080fd5b5061026b61059d366004612a61565b610f29565b3480156105ae57600080fd5b506102bc6105bd366004612ed4565b610fb0565b3480156105ce57600080fd5b506102bc6105dd366004612f2d565b611002565b3480156105ee57600080fd5b5060646102bc565b34801561060257600080fd5b506102bc610611366004612fe1565b611019565b34801561062257600080fd5b506008546102bc565b34801561063757600080fd5b5061026b610646366004613039565b611030565b34801561065757600080fd5b506102bc610666366004612a61565b6110b7565b34801561067757600080fd5b506102bc611151565b34801561068c57600080fd5b5061035761069b366004613056565b63bc197c8160e01b95945050505050565b3480156106b857600080fd5b506102bc6106c7366004612a61565b61115c565b3480156106d857600080fd5b5061026b6106e73660046130e9565b61118b565b3480156106f857600080fd5b506102bc610707366004612cda565b611252565b34801561071857600080fd5b506009546001600160a01b03165b6040516001600160a01b03909116815260200161029e565b34801561074a57600080fd5b506040805180820190915260208082527f737570706f72743d627261766f2671756f72756d3d666f722c6162737461696e9082015261031f565b34801561079057600080fd5b506102bc7f150214d74d59b7d1e90c73fc22ef3d991dd0a76b046543d4d80ab92d2a50328f81565b3480156107c457600080fd5b5061026b6107d3366004612a61565b61128c565b3480156107e457600080fd5b506102bc6107f336600461312c565b611313565b34801561080457600080fd5b5061026b610813366004612a61565b611334565b34801561082457600080fd5b50610357610833366004613158565b63f23a6e6160e01b95945050505050565b34801561085057600080fd5b506102bc61085f366004612a61565b6113bb565b34801561087057600080fd5b506107267f000000000000000000000000000000000000000000000000000000000000000081565b60006108ac6009546001600160a01b031690565b905090565b60006108bc826113c6565b92915050565b60006108ac60055490565b6000806109716109697fb3b3f3b703cd84ce352197dcff232b1b5d3cfb2025ce47cf04742d0651f1af888c8c8c8c6040516109099291906131c0565b60405180910390208b8051906020012060405160200161094e959493929190948552602085019390935260ff9190911660408401526060830152608082015260a00190565b604051602081830303815290604052805190602001206113eb565b868686611439565b90506109b78a828b8b8b8080601f0160208091040260200160405190810160405280939291908181526020018383808284376000920191909152508d9250611457915050565b9a9950505050505050505050565b6109cd610898565b6001600160a01b0316336001600160a01b031614610a065760405162461bcd60e51b81526004016109fd906131d0565b60405180910390fd5b30610a0f610898565b6001600160a01b031614610a4c5760008036604051610a2f9291906131c0565b604051809103902090505b80610a4560026115bc565b03610a3a57505b610a558161163b565b50565b606060008054610a6790613207565b80601f0160208091040260200160405190810160405280929190818152602001828054610a9390613207565b8015610ae05780601f10610ab557610100808354040283529160200191610ae0565b820191906000526020600020905b815481529060010190602001808311610ac357829003601f168201915b5050505050905090565b600080610af986868686611252565b90506004610b0682610e8f565b6007811115610b1757610b17612db7565b14610b345760405162461bcd60e51b81526004016109fd90613241565b6009546040805163793d064960e11b815290516000926001600160a01b03169163f27a0c929160048083019260209291908290030181865afa158015610b7e573d6000803e3d6000fd5b505050506040513d601f19601f82011682018060405250810190610ba29190613282565b60095460405163b1c5f42760e01b81529192506001600160a01b03169063b1c5f42790610bdc908a908a908a906000908b90600401613364565b602060405180830381865afa158015610bf9573d6000803e3d6000fd5b505050506040513d601f19601f82011682018060405250810190610c1d9190613282565b6000838152600a60205260408082209290925560095491516308f2a0bb60e41b81526001600160a01b0390921691638f2a0bb091610c68918b918b918b91908b9089906004016133b2565b600060405180830381600087803b158015610c8257600080fd5b505af1158015610c96573d6000803e3d6000fd5b505050507f9a2e42fd6722813d69113e7d0079d3d940171428df7373df9c7f7617cfda2892828242610cc89190613420565b6040805192835260208301919091520160405180910390a15095945050505050565b600080610cf986868686611252565b90506000610d0682610e8f565b90506004816007811115610d1c57610d1c612db7565b1480610d3957506005816007811115610d3757610d37612db7565b145b610d555760405162461bcd60e51b81526004016109fd90613241565b600082815260016020818152604092839020600201805460ff191690921790915590518381527f712ae1383f79ac853f8d882153778e0260ef8f03b504e2866e0593e04d2b291f910160405180910390a1610db38288888888611703565b610dc082888888886117a4565b610dcd82888888886117b1565b5095945050505050565b60008181526001602090815260408083208151928301909152546001600160401b0316908190525b6001600160401b031692915050565b60006108ac60045490565b604080517f150214d74d59b7d1e90c73fc22ef3d991dd0a76b046543d4d80ab92d2a50328f602082015290810186905260ff851660608201526000908190610e67906109699060800161094e565b9050610e84878288604051806020016040528060008152506117ea565b979650505050505050565b60006108bc8261180d565b60006108bc338360405180602001604052806000815250611957565b600080339050610ed7848285604051806020016040528060008152506117ea565b949350505050565b600080339050610e8487828888888080601f0160208091040260200160405190810160405280939291908181526020018383808284376000920191909152508a9250611457915050565b610f31610898565b6001600160a01b0316336001600160a01b031614610f615760405162461bcd60e51b81526004016109fd906131d0565b30610f6a610898565b6001600160a01b031614610fa75760008036604051610f8a9291906131c0565b604051809103902090505b80610fa060026115bc565b03610f9557505b610a55816119ed565b600080339050610ff886828787878080601f0160208091040260200160405190810160405280939291908181526020018383808284376000920191909152506117ea92505050565b9695505050505050565b600061101085858585611a2e565b95945050505050565b6000611026848484611957565b90505b9392505050565b611038610898565b6001600160a01b0316336001600160a01b0316146110685760405162461bcd60e51b81526004016109fd906131d0565b30611071610898565b6001600160a01b0316146110ae57600080366040516110919291906131c0565b604051809103902090505b806110a760026115bc565b0361109c57505b610a5581611cf1565b6009546000828152600a602052604080822054905163d45c443560e01b81526004810191909152909182916001600160a01b039091169063d45c443590602401602060405180830381865afa158015611114573d6000803e3d6000fd5b505050506040513d601f19601f820116820180604052508101906111389190613282565b9050806001146111485780611029565b60009392505050565b60006108ac60065490565b60008181526001602081815260408084208151928301909152909101546001600160401b031690819052610dff565b611193610898565b6001600160a01b0316336001600160a01b0316146111c35760405162461bcd60e51b81526004016109fd906131d0565b306111cc610898565b6001600160a01b03161461120957600080366040516111ec9291906131c0565b604051809103902090505b8061120260026115bc565b036111f757505b61124b8483838080601f016020809104026020016040519081016040528093929190818152602001838380828437600092019190915250889250611d5a915050565b5050505050565b60008484848460405160200161126b9493929190613438565b60408051601f19818403018152919052805160209091012095945050505050565b611294610898565b6001600160a01b0316336001600160a01b0316146112c45760405162461bcd60e51b81526004016109fd906131d0565b306112cd610898565b6001600160a01b03161461130a57600080366040516112ed9291906131c0565b604051809103902090505b8061130360026115bc565b036112f857505b610a5581611d80565b6000611029838361132f60408051602081019091526000815290565b611957565b61133c610898565b6001600160a01b0316336001600160a01b03161461136c5760405162461bcd60e51b81526004016109fd906131d0565b30611375610898565b6001600160a01b0316146113b257600080366040516113959291906131c0565b604051809103902090505b806113ab60026115bc565b036113a057505b610a5581611e21565b60006108bc82611e62565b60006001600160e01b03198216636e665ced60e01b14806108bc57506108bc82611f06565b60006108bc6113f8611f71565b8360405161190160f01b6020820152602281018390526042810182905260009060620160405160208183030381529060405280519060200120905092915050565b600080600061144a87878787612098565b91509150610dcd81612185565b600085815260016020819052604082209061147188610e8f565b600781111561148257611482612db7565b146114db5760405162461bcd60e51b815260206004820152602360248201527f476f7665726e6f723a20766f7465206e6f742063757272656e746c792061637460448201526269766560e81b60648201526084016109fd565b604080516020810190915281546001600160401b03169081905260009061150490889086611957565b9050611513888888848861233b565b835160000361156857866001600160a01b03167fb8e138887d0aa13bab447e82de9d5c1777041ecd21ca36ba824ff1e6c07ddda48988848960405161155b9493929190613483565b60405180910390a2610e84565b866001600160a01b03167fe2babfbac5889a709b63bb7f598b324e08bc5a4fb9ec647fb3cbc9ec07eb871289888489896040516115a99594939291906134ab565b60405180910390a2979650505050505050565b60006115d78254600f81810b600160801b909204900b131590565b156115f557604051631ed9509560e11b815260040160405180910390fd5b508054600f0b6000818152600180840160205260408220805492905583546fffffffffffffffffffffffffffffffff191692016001600160801b03169190911790915590565b60648111156116be5760405162461bcd60e51b815260206004820152604360248201527f476f7665726e6f72566f74657351756f72756d4672616374696f6e3a2071756f60448201527f72756d4e756d657261746f72206f7665722071756f72756d44656e6f6d696e616064820152623a37b960e91b608482015260a4016109fd565b600880549082905560408051828152602081018490527f0553476bf02ef2726e8ce5ced78d63e26e602e4a2257b1f559418e24b4633997910160405180910390a15050565b3061170c610898565b6001600160a01b03161461124b5760005b845181101561179c57306001600160a01b0316858281518110611742576117426134f1565b60200260200101516001600160a01b03160361178c5761178c83828151811061176d5761176d6134f1565b60200260200101518051906020012060026124b590919063ffffffff16565b61179581613507565b905061171d565b505050505050565b61124b85858585856124f1565b306117ba610898565b6001600160a01b03161461124b57600254600f81810b600160801b909204900b131561124b57600060025561124b565b60006110108585858561180860408051602081019091526000815290565b611457565b60008061181983612565565b9050600481600781111561182f5761182f612db7565b1461183a5792915050565b6000838152600a602052604090205480611855575092915050565b600954604051632ab0f52960e01b8152600481018390526001600160a01b0390911690632ab0f52990602401602060405180830381865afa15801561189e573d6000803e3d6000fd5b505050506040513d601f19601f820116820180604052508101906118c29190613520565b156118d1575060079392505050565b600954604051632c258a9f60e11b8152600481018390526001600160a01b039091169063584b153e90602401602060405180830381865afa15801561191a573d6000803e3d6000fd5b505050506040513d601f19601f8201168201806040525081019061193e9190613520565b1561194d575060059392505050565b5060029392505050565b604051630748d63560e31b81526001600160a01b038481166004830152602482018490526000917f000000000000000000000000000000000000000000000000000000000000000090911690633a46b1a890604401602060405180830381865afa1580156119c9573d6000803e3d6000fd5b505050506040513d601f19601f820116820180604052508101906110269190613282565b60045460408051918252602082018390527fc565b045403dc03c2eea82b81a0465edad9e2e7fc4d97e11421c209da93d7a93910160405180910390a1600455565b6000611a38611151565b611a47336107f3600143613542565b1015611aaf5760405162461bcd60e51b815260206004820152603160248201527f476f7665726e6f723a2070726f706f73657220766f7465732062656c6f7720706044820152701c9bdc1bdcd85b081d1a1c995cda1bdb19607a1b60648201526084016109fd565b6000611ac48686868680519060200120611252565b90508451865114611ae75760405162461bcd60e51b81526004016109fd90613559565b8351865114611b085760405162461bcd60e51b81526004016109fd90613559565b6000865111611b595760405162461bcd60e51b815260206004820152601860248201527f476f7665726e6f723a20656d7074792070726f706f73616c000000000000000060448201526064016109fd565b600081815260016020908152604091829020825191820190925281546001600160401b03169081905215611bd95760405162461bcd60e51b815260206004820152602160248201527f476f7665726e6f723a2070726f706f73616c20616c72656164792065786973746044820152607360f81b60648201526084016109fd565b6000611beb611be6610e0e565b612674565b611bf443612674565b611bfe919061359a565b90506000611c0d611be66108c2565b611c17908361359a565b835467ffffffffffffffff19166001600160401b038416178455905060018301805467ffffffffffffffff19166001600160401b0383161790557f7d84a6263ae0d98d3329bd7b46bb4e8d6f98cd35a7adb45c274c8b7fd5ebd5e084338b8b8d516001600160401b03811115611c8f57611c8f6128fe565b604051908082528060200260200182016040528015611cc257816020015b6060815260200190600190039081611cad5790505b508c88888e604051611cdc999897969594939291906135c5565b60405180910390a15091979650505050505050565b600954604080516001600160a01b03928316815291831660208301527f08f74ea46ef7894f65eabfb5e6e695de773a000b47c529ab559178069b226401910160405180910390a1600980546001600160a01b0319166001600160a01b0392909216919091179055565b6060611026848484604051806060016040528060298152602001613712602991396126e0565b60008111611de05760405162461bcd60e51b815260206004820152602760248201527f476f7665726e6f7253657474696e67733a20766f74696e6720706572696f6420604482015266746f6f206c6f7760c81b60648201526084016109fd565b60055460408051918252602082018390527f7e3f7f0708a84de9203036abaa450dccc85ad5ff52f78c170f3edb55cf5e8828910160405180910390a1600555565b60065460408051918252602082018390527fccb45da8d5717e6c4544694297c4ba5cf151d455c9bb0ed4fc7a38411bc05461910160405180910390a1600655565b60006064600854604051632394e7a360e21b8152600481018590527f00000000000000000000000000000000000000000000000000000000000000006001600160a01b031690638e539e8c90602401602060405180830381865afa158015611ece573d6000803e3d6000fd5b505050506040513d601f19601f82011682018060405250810190611ef29190613282565b611efc91906136b4565b6108bc91906136d3565b60006001600160e01b0319821663bf26d89760e01b1480611f3757506001600160e01b031982166379dd796f60e01b145b80611f5257506001600160e01b03198216630271189760e51b145b806108bc57506301ffc9a760e01b6001600160e01b03198316146108bc565b6000306001600160a01b037f000000000000000000000000000000000000000000000000000000000000000016148015611fca57507f000000000000000000000000000000000000000000000000000000000000000046145b15611ff457507f000000000000000000000000000000000000000000000000000000000000000090565b50604080517f00000000000000000000000000000000000000000000000000000000000000006020808301919091527f0000000000000000000000000000000000000000000000000000000000000000828401527f000000000000000000000000000000000000000000000000000000000000000060608301524660808301523060a0808401919091528351808403909101815260c0909201909252805191012090565b6000807f7fffffffffffffffffffffffffffffff5d576e7357a4501ddfe92f46681b20a08311156120cf575060009050600361217c565b8460ff16601b141580156120e757508460ff16601c14155b156120f8575060009050600461217c565b6040805160008082526020820180845289905260ff881692820192909252606081018690526080810185905260019060a0016020604051602081039080840390855afa15801561214c573d6000803e3d6000fd5b5050604051601f1901519150506001600160a01b0381166121755760006001925092505061217c565b9150600090505b94509492505050565b600081600481111561219957612199612db7565b036121a15750565b60018160048111156121b5576121b5612db7565b036122025760405162461bcd60e51b815260206004820152601860248201527f45434453413a20696e76616c6964207369676e6174757265000000000000000060448201526064016109fd565b600281600481111561221657612216612db7565b036122635760405162461bcd60e51b815260206004820152601f60248201527f45434453413a20696e76616c6964207369676e6174757265206c656e6774680060448201526064016109fd565b600381600481111561227757612277612db7565b036122cf5760405162461bcd60e51b815260206004820152602260248201527f45434453413a20696e76616c6964207369676e6174757265202773272076616c604482015261756560f01b60648201526084016109fd565b60048160048111156122e3576122e3612db7565b03610a555760405162461bcd60e51b815260206004820152602260248201527f45434453413a20696e76616c6964207369676e6174757265202776272076616c604482015261756560f01b60648201526084016109fd565b60008581526007602090815260408083206001600160a01b0388168452600381019092529091205460ff16156123c35760405162461bcd60e51b815260206004820152602760248201527f476f7665726e6f72566f74696e6753696d706c653a20766f746520616c726561604482015266191e4818d85cdd60ca1b60648201526084016109fd565b6001600160a01b03851660009081526003820160205260409020805460ff1916600117905560ff841661240f57828160000160008282546124049190613420565b9091555061179c9050565b60001960ff85160161242f57828160010160008282546124049190613420565b60011960ff85160161244f57828160020160008282546124049190613420565b60405162461bcd60e51b815260206004820152603560248201527f476f7665726e6f72566f74696e6753696d706c653a20696e76616c69642076616044820152746c756520666f7220656e756d20566f74655479706560581b60648201526084016109fd565b8154600160801b90819004600f0b6000818152600180860160205260409091209390935583546001600160801b03908116939091011602179055565b60095460405163e38335e560e01b81526001600160a01b039091169063e38335e590349061252c908890889088906000908990600401613364565b6000604051808303818588803b15801561254557600080fd5b505af1158015612559573d6000803e3d6000fd5b50505050505050505050565b6000818152600160205260408120600281015460ff16156125895750600792915050565b6002810154610100900460ff16156125a45750600292915050565b60006125af84610dd7565b9050806000036126015760405162461bcd60e51b815260206004820152601d60248201527f476f7665726e6f723a20756e6b6e6f776e2070726f706f73616c20696400000060448201526064016109fd565b438110612612575060009392505050565b600061261d8561115c565b905043811061263157506001949350505050565b61263a85612806565b8015612659575060008581526007602052604090208054600190910154115b1561266957506004949350505050565b506003949350505050565b60006001600160401b038211156126dc5760405162461bcd60e51b815260206004820152602660248201527f53616665436173743a2076616c756520646f65736e27742066697420696e203660448201526534206269747360d01b60648201526084016109fd565b5090565b6060824710156127415760405162461bcd60e51b815260206004820152602660248201527f416464726573733a20696e73756666696369656e742062616c616e636520666f6044820152651c8818d85b1b60d21b60648201526084016109fd565b6001600160a01b0385163b6127985760405162461bcd60e51b815260206004820152601d60248201527f416464726573733a2063616c6c20746f206e6f6e2d636f6e747261637400000060448201526064016109fd565b600080866001600160a01b031685876040516127b491906136f5565b60006040518083038185875af1925050503d80600081146127f1576040519150601f19603f3d011682016040523d82523d6000602084013e6127f6565b606091505b5091509150610e8482828661283d565b6000818152600760205260408120600281015460018201546128289190613420565b61283461085f85610dd7565b11159392505050565b6060831561284c575081611029565b82511561285c5782518084602001fd5b8160405162461bcd60e51b81526004016109fd9190612ad6565b60006020828403121561288857600080fd5b81356001600160e01b03198116811461102957600080fd5b803560ff811681146128b157600080fd5b919050565b60008083601f8401126128c857600080fd5b5081356001600160401b038111156128df57600080fd5b6020830191508360208285010111156128f757600080fd5b9250929050565b634e487b7160e01b600052604160045260246000fd5b604051601f8201601f191681016001600160401b038111828210171561293c5761293c6128fe565b604052919050565b60006001600160401b0383111561295d5761295d6128fe565b612970601f8401601f1916602001612914565b905082815283838301111561298457600080fd5b828260208301376000602084830101529392505050565b600082601f8301126129ac57600080fd5b61102983833560208501612944565b60008060008060008060008060e0898b0312156129d757600080fd5b883597506129e760208a016128a0565b965060408901356001600160401b0380821115612a0357600080fd5b612a0f8c838d016128b6565b909850965060608b0135915080821115612a2857600080fd5b50612a358b828c0161299b565b945050612a4460808a016128a0565b925060a0890135915060c089013590509295985092959890939650565b600060208284031215612a7357600080fd5b5035919050565b60005b83811015612a95578181015183820152602001612a7d565b83811115612aa4576000848401525b50505050565b60008151808452612ac2816020860160208601612a7a565b601f01601f19169290920160200192915050565b6020815260006110296020830184612aaa565b6001600160a01b0381168114610a5557600080fd5b60008060008060808587031215612b1457600080fd5b8435612b1f81612ae9565b93506020850135612b2f81612ae9565b92506040850135915060608501356001600160401b03811115612b5157600080fd5b612b5d8782880161299b565b91505092959194509250565b60006001600160401b03821115612b8257612b826128fe565b5060051b60200190565b600082601f830112612b9d57600080fd5b81356020612bb2612bad83612b69565b612914565b82815260059290921b84018101918181019086841115612bd157600080fd5b8286015b84811015612bf5578035612be881612ae9565b8352918301918301612bd5565b509695505050505050565b600082601f830112612c1157600080fd5b81356020612c21612bad83612b69565b82815260059290921b84018101918181019086841115612c4057600080fd5b8286015b84811015612bf55780358352918301918301612c44565b600082601f830112612c6c57600080fd5b81356020612c7c612bad83612b69565b82815260059290921b84018101918181019086841115612c9b57600080fd5b8286015b84811015612bf55780356001600160401b03811115612cbe5760008081fd5b612ccc8986838b010161299b565b845250918301918301612c9f565b60008060008060808587031215612cf057600080fd5b84356001600160401b0380821115612d0757600080fd5b612d1388838901612b8c565b95506020870135915080821115612d2957600080fd5b612d3588838901612c00565b94506040870135915080821115612d4b57600080fd5b50612d5887828801612c5b565b949793965093946060013593505050565b600080600080600060a08688031215612d8157600080fd5b85359450612d91602087016128a0565b9350612d9f604087016128a0565b94979396509394606081013594506080013592915050565b634e487b7160e01b600052602160045260246000fd5b6020810160088310612def57634e487b7160e01b600052602160045260246000fd5b91905290565b60008060408385031215612e0857600080fd5b823591506020830135612e1a81612ae9565b809150509250929050565b60008060408385031215612e3857600080fd5b82359150612e48602084016128a0565b90509250929050565b600080600080600060808688031215612e6957600080fd5b85359450612e79602087016128a0565b935060408601356001600160401b0380821115612e9557600080fd5b612ea189838a016128b6565b90955093506060880135915080821115612eba57600080fd5b50612ec78882890161299b565b9150509295509295909350565b60008060008060608587031215612eea57600080fd5b84359350612efa602086016128a0565b925060408501356001600160401b03811115612f1557600080fd5b612f21878288016128b6565b95989497509550505050565b60008060008060808587031215612f4357600080fd5b84356001600160401b0380821115612f5a57600080fd5b612f6688838901612b8c565b95506020870135915080821115612f7c57600080fd5b612f8888838901612c00565b94506040870135915080821115612f9e57600080fd5b612faa88838901612c5b565b93506060870135915080821115612fc057600080fd5b508501601f81018713612fd257600080fd5b612b5d87823560208401612944565b600080600060608486031215612ff657600080fd5b833561300181612ae9565b92506020840135915060408401356001600160401b0381111561302357600080fd5b61302f8682870161299b565b9150509250925092565b60006020828403121561304b57600080fd5b813561102981612ae9565b600080600080600060a0868803121561306e57600080fd5b853561307981612ae9565b9450602086013561308981612ae9565b935060408601356001600160401b03808211156130a557600080fd5b6130b189838a01612c00565b945060608801359150808211156130c757600080fd5b6130d389838a01612c00565b93506080880135915080821115612eba57600080fd5b600080600080606085870312156130ff57600080fd5b843561310a81612ae9565b93506020850135925060408501356001600160401b03811115612f1557600080fd5b6000806040838503121561313f57600080fd5b823561314a81612ae9565b946020939093013593505050565b600080600080600060a0868803121561317057600080fd5b853561317b81612ae9565b9450602086013561318b81612ae9565b9350604086013592506060860135915060808601356001600160401b038111156131b457600080fd5b612ec78882890161299b565b8183823760009101908152919050565b60208082526018908201527f476f7665726e6f723a206f6e6c79476f7665726e616e63650000000000000000604082015260600190565b600181811c9082168061321b57607f821691505b60208210810361323b57634e487b7160e01b600052602260045260246000fd5b50919050565b60208082526021908201527f476f7665726e6f723a2070726f706f73616c206e6f74207375636365737366756040820152601b60fa1b606082015260800190565b60006020828403121561329457600080fd5b5051919050565b600081518084526020808501945080840160005b838110156132d45781516001600160a01b0316875295820195908201906001016132af565b509495945050505050565b600081518084526020808501945080840160005b838110156132d4578151875295820195908201906001016132f3565b600081518084526020808501808196508360051b8101915082860160005b85811015613357578284038952613345848351612aaa565b9885019893509084019060010161332d565b5091979650505050505050565b60a08152600061337760a083018861329b565b828103602084015261338981886132df565b9050828103604084015261339d818761330f565b60608401959095525050608001529392505050565b60c0815260006133c560c083018961329b565b82810360208401526133d781896132df565b905082810360408401526133eb818861330f565b60608401969096525050608081019290925260a0909101529392505050565b634e487b7160e01b600052601160045260246000fd5b600082198211156134335761343361340a565b500190565b60808152600061344b608083018761329b565b828103602084015261345d81876132df565b90508281036040840152613471818661330f565b91505082606083015295945050505050565b84815260ff84166020820152826040820152608060608201526000610ff86080830184612aaa565b85815260ff8516602082015283604082015260a0606082015260006134d360a0830185612aaa565b82810360808401526134e58185612aaa565b98975050505050505050565b634e487b7160e01b600052603260045260246000fd5b6000600182016135195761351961340a565b5060010190565b60006020828403121561353257600080fd5b8151801515811461102957600080fd5b6000828210156135545761355461340a565b500390565b60208082526021908201527f476f7665726e6f723a20696e76616c69642070726f706f73616c206c656e67746040820152600d60fb1b606082015260800190565b60006001600160401b038083168185168083038211156135bc576135bc61340a565b01949350505050565b60006101208b8352602060018060a01b038c16818501528160408501526135ee8285018c61329b565b91508382036060850152613602828b6132df565b915083820360808501528189518084528284019150828160051b850101838c0160005b8381101561365357601f19878403018552613641838351612aaa565b94860194925090850190600101613625565b505086810360a0880152613667818c61330f565b94505050505061368260c08401876001600160401b03169052565b6001600160401b03851660e08401528281036101008401526136a48185612aaa565b9c9b505050505050505050505050565b60008160001904831182151516156136ce576136ce61340a565b500290565b6000826136f057634e487b7160e01b600052601260045260246000fd5b500490565b60008251613707818460208701612a7a565b919091019291505056fe416464726573733a206c6f772d6c6576656c2063616c6c20776974682076616c7565206661696c6564a26469706673582212202207b400158c2d6f9c571bd2c2bc6a61f70e8509f2c3f6dac1d1a9ed69a489cb64736f6c634300080d0033",
  "immutableReferences": {
    "4171": [
      {
        "length": 32,
        "start": 2166
      },
      {
        "length": 32,
        "start": 6528
      },
      {
        "length": 32,
        "start": 7807
      }
    ],
    "7243": [
      {
        "length": 32,
        "start": 8146
      }
    ],
    "7245": [
      {
        "length": 32,
        "start": 8104
      }
    ],
    "7247": [
      {
        "length": 32,
        "start": 8062
      }
    ],
    "7249": [
      {
        "length": 32,
        "start": 8229
      }
    ],
    "7251": [
      {
        "length": 32,
        "start": 8266
      }
    ],
    "7253": [
      {
        "length": 32,
        "start": 8187
      }
    ]
  },
  "source": "//SPDX-License-Identifier: UNLICENSED\r\n\r\npragma solidity ^0.8.0;\r\n\r\nimport \"../node_modules/@openzeppelin/contracts/governance/Governor.sol\";\r\nimport \"../node_modules/@openzeppelin/contracts/governance/extensions/GovernorSettings.sol\";\r\nimport \"../node_modules/@openzeppelin/contracts/governance/extensions/GovernorCountingSimple.sol\";\r\nimport \"../node_modules/@openzeppelin/contracts/governance/extensions/GovernorVotes.sol\";\r\nimport \"../node_modules/@openzeppelin/contracts/governance/extensions/GovernorVotesQuorumFraction.sol\";\r\nimport \"../node_modules/@openzeppelin/contracts/governance/extensions/GovernorTimelockControl.sol\";\r\n\r\ncontract GovernorContract is \r\n    Governor, \r\n    GovernorSettings, \r\n    GovernorCountingSimple, \r\n    GovernorVotes, \r\n    GovernorVotesQuorumFraction, \r\n    GovernorTimelockControl {\r\n\r\n    //GovernorSettings: Wait 0 blocks to allow votes, is possible to vote during 1 week. \r\n    // The third parameter is the number of votes possesed by an account to make a proposal\r\n\r\n    //GovernorVotesQuorumFraction: 1 quorum = 4% of total supply\r\n    constructor(IVotes tokenAddress, TimelockController timelock) \r\n        Governor(\"My governor\")\r\n        GovernorSettings(0, 2, 0) \r\n        GovernorVotes(tokenAddress)\r\n        GovernorVotesQuorumFraction(4)\r\n        GovernorTimelockControl(timelock) {}\r\n\r\n    function getMyVoteWeight(uint256 blockNumber) public view returns(uint256){\r\n        return _getVotes(msg.sender, blockNumber, \"\");\r\n    }\r\n\r\n    //Override the necessary functions\r\n\r\n    function votingDelay() public view override(IGovernor, GovernorSettings) returns(uint256){\r\n        return super.votingDelay();\r\n    }\r\n\r\n    function votingPeriod() public view override(IGovernor, GovernorSettings) returns(uint256){\r\n        return super.votingPeriod();\r\n    }\r\n\r\n    function quorum(uint256 blockNumber) public view override(IGovernor, GovernorVotesQuorumFraction) returns(uint256){\r\n        return super.quorum(blockNumber);\r\n    }\r\n\r\n    function state(uint256 proposalId) public view override(Governor, GovernorTimelockControl) returns(ProposalState){\r\n        return super.state(proposalId);\r\n    }\r\n\r\n    function propose(address[] memory targets, uint256[] memory values, bytes[] memory calldatas, string memory description) public override(Governor, IGovernor) returns(uint256) {\r\n        return super.propose(targets, values, calldatas, description);\r\n    }\r\n\r\n    function proposalThreshold() public view override(Governor, GovernorSettings) returns(uint256){\r\n        return super.proposalThreshold();\r\n    }\r\n\r\n    function _execute(uint256 proposalId, address[] memory targets, uint256[] memory values, bytes[] memory calldatas, bytes32 descriptionHash) internal override(Governor, GovernorTimelockControl) {\r\n        super._execute(proposalId, targets, values, calldatas, descriptionHash);\r\n    }\r\n\r\n    function _cancel(address[] memory targets, uint256[] memory values, bytes[] memory calldatas, bytes32 descriptionHash) internal override(Governor, GovernorTimelockControl) returns(uint256){\r\n        return super._cancel(targets, values, calldatas, descriptionHash);\r\n    }\r\n\r\n    function _executor() internal view override(Governor, GovernorTimelockControl) returns(address){\r\n        return super._executor();\r\n    }\r\n\r\n    function supportsInterface(bytes4 interfaceId) public view override(Governor, GovernorTimelockControl) returns(bool){\r\n        return super.supportsInterface(interfaceId);\r\n    }\r\n}",
  "sourcePath": "D:\\Documentos\\Trabajos\\timelock_test\\contracts\\GovernorContract.sol",
  "compiler": {
    "name": "solc",
    "version": "0.8.13+commit.abaa5c0e.Emscripten.clang"
  },
  "schemaVersion": "3.4.7",
  "updatedAt": "2022-06-03T16:00:34.543Z",
  "networkType": "ethereum",
  "devdoc": {
    "errors": {
      "Empty()": [
        {
          "details": "An operation (e.g. {front}) couldn't be completed due to the queue being empty."
        }
      ]
    },
    "kind": "dev",
    "methods": {
      "COUNTING_MODE()": {
        "details": "See {IGovernor-COUNTING_MODE}."
      },
      "castVote(uint256,uint8)": {
        "details": "See {IGovernor-castVote}."
      },
      "castVoteBySig(uint256,uint8,uint8,bytes32,bytes32)": {
        "details": "See {IGovernor-castVoteBySig}."
      },
      "castVoteWithReason(uint256,uint8,string)": {
        "details": "See {IGovernor-castVoteWithReason}."
      },
      "castVoteWithReasonAndParams(uint256,uint8,string,bytes)": {
        "details": "See {IGovernor-castVoteWithReasonAndParams}."
      },
      "castVoteWithReasonAndParamsBySig(uint256,uint8,string,bytes,uint8,bytes32,bytes32)": {
        "details": "See {IGovernor-castVoteWithReasonAndParamsBySig}."
      },
      "execute(address[],uint256[],bytes[],bytes32)": {
        "details": "See {IGovernor-execute}."
      },
      "getVotes(address,uint256)": {
        "details": "See {IGovernor-getVotes}."
      },
      "getVotesWithParams(address,uint256,bytes)": {
        "details": "See {IGovernor-getVotesWithParams}."
      },
      "hasVoted(uint256,address)": {
        "details": "See {IGovernor-hasVoted}."
      },
      "hashProposal(address[],uint256[],bytes[],bytes32)": {
        "details": "See {IGovernor-hashProposal}. The proposal id is produced by hashing the RLC encoded `targets` array, the `values` array, the `calldatas` array and the descriptionHash (bytes32 which itself is the keccak256 hash of the description string). This proposal id can be produced from the proposal data which is part of the {ProposalCreated} event. It can even be computed in advance, before the proposal is submitted. Note that the chainId and the governor address are not part of the proposal id computation. Consequently, the same proposal (with same operation and same description) will have the same id if submitted on multiple governors across multiple networks. This also means that in order to execute the same operation twice (on the same governor) the proposer will have to change the description in order to avoid proposal id conflicts."
      },
      "name()": {
        "details": "See {IGovernor-name}."
      },
      "onERC1155BatchReceived(address,address,uint256[],uint256[],bytes)": {
        "details": "See {IERC1155Receiver-onERC1155BatchReceived}."
      },
      "onERC1155Received(address,address,uint256,uint256,bytes)": {
        "details": "See {IERC1155Receiver-onERC1155Received}."
      },
      "onERC721Received(address,address,uint256,bytes)": {
        "details": "See {IERC721Receiver-onERC721Received}."
      },
      "proposalDeadline(uint256)": {
        "details": "See {IGovernor-proposalDeadline}."
      },
      "proposalEta(uint256)": {
        "details": "Public accessor to check the eta of a queued proposal"
      },
      "proposalSnapshot(uint256)": {
        "details": "See {IGovernor-proposalSnapshot}."
      },
      "proposalVotes(uint256)": {
        "details": "Accessor to the internal vote counts."
      },
      "queue(address[],uint256[],bytes[],bytes32)": {
        "details": "Function to queue a proposal to the timelock."
      },
      "quorumDenominator()": {
        "details": "Returns the quorum denominator. Defaults to 100, but may be overridden."
      },
      "quorumNumerator()": {
        "details": "Returns the current quorum numerator. See {quorumDenominator}."
      },
      "relay(address,uint256,bytes)": {
        "details": "Relays a transaction or function call to an arbitrary target. In cases where the governance executor is some contract other than the governor itself, like when using a timelock, this function can be invoked in a governance proposal to recover tokens or Ether that was sent to the governor contract by mistake. Note that if the executor is simply the governor itself, use of `relay` is redundant."
      },
      "setProposalThreshold(uint256)": {
        "details": "Update the proposal threshold. This operation can only be performed through a governance proposal. Emits a {ProposalThresholdSet} event."
      },
      "setVotingDelay(uint256)": {
        "details": "Update the voting delay. This operation can only be performed through a governance proposal. Emits a {VotingDelaySet} event."
      },
      "setVotingPeriod(uint256)": {
        "details": "Update the voting period. This operation can only be performed through a governance proposal. Emits a {VotingPeriodSet} event."
      },
      "timelock()": {
        "details": "Public accessor to check the address of the timelock"
      },
      "updateQuorumNumerator(uint256)": {
        "details": "Changes the quorum numerator. Emits a {QuorumNumeratorUpdated} event. Requirements: - Must be called through a governance proposal. - New numerator must be smaller or equal to the denominator."
      },
      "updateTimelock(address)": {
        "details": "Public endpoint to update the underlying timelock instance. Restricted to the timelock itself, so updates must be proposed, scheduled, and executed through governance proposals. CAUTION: It is not recommended to change the timelock while there are other queued governance proposals."
      },
      "version()": {
        "details": "See {IGovernor-version}."
      }
    },
    "version": 1
  },
  "userdoc": {
    "kind": "user",
    "methods": {},
    "version": 1
  }
}