{
  "contractName": "GovernanceToken",
  "abi": [
    {
      "inputs": [],
      "stateMutability": "nonpayable",
      "type": "constructor"
    },
    {
      "anonymous": false,
      "inputs": [
        {
          "indexed": true,
          "internalType": "address",
          "name": "owner",
          "type": "address"
        },
        {
          "indexed": true,
          "internalType": "address",
          "name": "spender",
          "type": "address"
        },
        {
          "indexed": false,
          "internalType": "uint256",
          "name": "value",
          "type": "uint256"
        }
      ],
      "name": "Approval",
      "type": "event"
    },
    {
      "anonymous": false,
      "inputs": [
        {
          "indexed": true,
          "internalType": "address",
          "name": "delegator",
          "type": "address"
        },
        {
          "indexed": true,
          "internalType": "address",
          "name": "fromDelegate",
          "type": "address"
        },
        {
          "indexed": true,
          "internalType": "address",
          "name": "toDelegate",
          "type": "address"
        }
      ],
      "name": "DelegateChanged",
      "type": "event"
    },
    {
      "anonymous": false,
      "inputs": [
        {
          "indexed": true,
          "internalType": "address",
          "name": "delegate",
          "type": "address"
        },
        {
          "indexed": false,
          "internalType": "uint256",
          "name": "previousBalance",
          "type": "uint256"
        },
        {
          "indexed": false,
          "internalType": "uint256",
          "name": "newBalance",
          "type": "uint256"
        }
      ],
      "name": "DelegateVotesChanged",
      "type": "event"
    },
    {
      "anonymous": false,
      "inputs": [
        {
          "indexed": true,
          "internalType": "address",
          "name": "previousOwner",
          "type": "address"
        },
        {
          "indexed": true,
          "internalType": "address",
          "name": "newOwner",
          "type": "address"
        }
      ],
      "name": "OwnershipTransferred",
      "type": "event"
    },
    {
      "anonymous": false,
      "inputs": [
        {
          "indexed": true,
          "internalType": "address",
          "name": "from",
          "type": "address"
        },
        {
          "indexed": true,
          "internalType": "address",
          "name": "to",
          "type": "address"
        },
        {
          "indexed": false,
          "internalType": "uint256",
          "name": "value",
          "type": "uint256"
        }
      ],
      "name": "Transfer",
      "type": "event"
    },
    {
      "inputs": [],
      "name": "DOMAIN_SEPARATOR",
      "outputs": [
        {
          "internalType": "bytes32",
          "name": "",
          "type": "bytes32"
        }
      ],
      "stateMutability": "view",
      "type": "function",
      "constant": true
    },
    {
      "inputs": [
        {
          "internalType": "address",
          "name": "owner",
          "type": "address"
        },
        {
          "internalType": "address",
          "name": "spender",
          "type": "address"
        }
      ],
      "name": "allowance",
      "outputs": [
        {
          "internalType": "uint256",
          "name": "",
          "type": "uint256"
        }
      ],
      "stateMutability": "view",
      "type": "function",
      "constant": true
    },
    {
      "inputs": [
        {
          "internalType": "address",
          "name": "spender",
          "type": "address"
        },
        {
          "internalType": "uint256",
          "name": "amount",
          "type": "uint256"
        }
      ],
      "name": "approve",
      "outputs": [
        {
          "internalType": "bool",
          "name": "",
          "type": "bool"
        }
      ],
      "stateMutability": "nonpayable",
      "type": "function"
    },
    {
      "inputs": [
        {
          "internalType": "address",
          "name": "account",
          "type": "address"
        }
      ],
      "name": "balanceOf",
      "outputs": [
        {
          "internalType": "uint256",
          "name": "",
          "type": "uint256"
        }
      ],
      "stateMutability": "view",
      "type": "function",
      "constant": true
    },
    {
      "inputs": [
        {
          "internalType": "address",
          "name": "account",
          "type": "address"
        },
        {
          "internalType": "uint32",
          "name": "pos",
          "type": "uint32"
        }
      ],
      "name": "checkpoints",
      "outputs": [
        {
          "components": [
            {
              "internalType": "uint32",
              "name": "fromBlock",
              "type": "uint32"
            },
            {
              "internalType": "uint224",
              "name": "votes",
              "type": "uint224"
            }
          ],
          "internalType": "struct ERC20Votes.Checkpoint",
          "name": "",
          "type": "tuple"
        }
      ],
      "stateMutability": "view",
      "type": "function",
      "constant": true
    },
    {
      "inputs": [],
      "name": "decimals",
      "outputs": [
        {
          "internalType": "uint8",
          "name": "",
          "type": "uint8"
        }
      ],
      "stateMutability": "view",
      "type": "function",
      "constant": true
    },
    {
      "inputs": [
        {
          "internalType": "address",
          "name": "spender",
          "type": "address"
        },
        {
          "internalType": "uint256",
          "name": "subtractedValue",
          "type": "uint256"
        }
      ],
      "name": "decreaseAllowance",
      "outputs": [
        {
          "internalType": "bool",
          "name": "",
          "type": "bool"
        }
      ],
      "stateMutability": "nonpayable",
      "type": "function"
    },
    {
      "inputs": [
        {
          "internalType": "address",
          "name": "delegatee",
          "type": "address"
        }
      ],
      "name": "delegate",
      "outputs": [],
      "stateMutability": "nonpayable",
      "type": "function"
    },
    {
      "inputs": [
        {
          "internalType": "address",
          "name": "delegatee",
          "type": "address"
        },
        {
          "internalType": "uint256",
          "name": "nonce",
          "type": "uint256"
        },
        {
          "internalType": "uint256",
          "name": "expiry",
          "type": "uint256"
        },
        {
          "internalType": "uint8",
          "name": "v",
          "type": "uint8"
        },
        {
          "internalType": "bytes32",
          "name": "r",
          "type": "bytes32"
        },
        {
          "internalType": "bytes32",
          "name": "s",
          "type": "bytes32"
        }
      ],
      "name": "delegateBySig",
      "outputs": [],
      "stateMutability": "nonpayable",
      "type": "function"
    },
    {
      "inputs": [
        {
          "internalType": "address",
          "name": "account",
          "type": "address"
        }
      ],
      "name": "delegates",
      "outputs": [
        {
          "internalType": "address",
          "name": "",
          "type": "address"
        }
      ],
      "stateMutability": "view",
      "type": "function",
      "constant": true
    },
    {
      "inputs": [
        {
          "internalType": "uint256",
          "name": "blockNumber",
          "type": "uint256"
        }
      ],
      "name": "getPastTotalSupply",
      "outputs": [
        {
          "internalType": "uint256",
          "name": "",
          "type": "uint256"
        }
      ],
      "stateMutability": "view",
      "type": "function",
      "constant": true
    },
    {
      "inputs": [
        {
          "internalType": "address",
          "name": "account",
          "type": "address"
        },
        {
          "internalType": "uint256",
          "name": "blockNumber",
          "type": "uint256"
        }
      ],
      "name": "getPastVotes",
      "outputs": [
        {
          "internalType": "uint256",
          "name": "",
          "type": "uint256"
        }
      ],
      "stateMutability": "view",
      "type": "function",
      "constant": true
    },
    {
      "inputs": [
        {
          "internalType": "address",
          "name": "account",
          "type": "address"
        }
      ],
      "name": "getVotes",
      "outputs": [
        {
          "internalType": "uint256",
          "name": "",
          "type": "uint256"
        }
      ],
      "stateMutability": "view",
      "type": "function",
      "constant": true
    },
    {
      "inputs": [
        {
          "internalType": "address",
          "name": "spender",
          "type": "address"
        },
        {
          "internalType": "uint256",
          "name": "addedValue",
          "type": "uint256"
        }
      ],
      "name": "increaseAllowance",
      "outputs": [
        {
          "internalType": "bool",
          "name": "",
          "type": "bool"
        }
      ],
      "stateMutability": "nonpayable",
      "type": "function"
    },
    {
      "inputs": [],
      "name": "name",
      "outputs": [
        {
          "internalType": "string",
          "name": "",
          "type": "string"
        }
      ],
      "stateMutability": "view",
      "type": "function",
      "constant": true
    },
    {
      "inputs": [
        {
          "internalType": "address",
          "name": "owner",
          "type": "address"
        }
      ],
      "name": "nonces",
      "outputs": [
        {
          "internalType": "uint256",
          "name": "",
          "type": "uint256"
        }
      ],
      "stateMutability": "view",
      "type": "function",
      "constant": true
    },
    {
      "inputs": [
        {
          "internalType": "address",
          "name": "account",
          "type": "address"
        }
      ],
      "name": "numCheckpoints",
      "outputs": [
        {
          "internalType": "uint32",
          "name": "",
          "type": "uint32"
        }
      ],
      "stateMutability": "view",
      "type": "function",
      "constant": true
    },
    {
      "inputs": [],
      "name": "owner",
      "outputs": [
        {
          "internalType": "address",
          "name": "",
          "type": "address"
        }
      ],
      "stateMutability": "view",
      "type": "function",
      "constant": true
    },
    {
      "inputs": [
        {
          "internalType": "address",
          "name": "owner",
          "type": "address"
        },
        {
          "internalType": "address",
          "name": "spender",
          "type": "address"
        },
        {
          "internalType": "uint256",
          "name": "value",
          "type": "uint256"
        },
        {
          "internalType": "uint256",
          "name": "deadline",
          "type": "uint256"
        },
        {
          "internalType": "uint8",
          "name": "v",
          "type": "uint8"
        },
        {
          "internalType": "bytes32",
          "name": "r",
          "type": "bytes32"
        },
        {
          "internalType": "bytes32",
          "name": "s",
          "type": "bytes32"
        }
      ],
      "name": "permit",
      "outputs": [],
      "stateMutability": "nonpayable",
      "type": "function"
    },
    {
      "inputs": [],
      "name": "renounceOwnership",
      "outputs": [],
      "stateMutability": "nonpayable",
      "type": "function"
    },
    {
      "inputs": [],
      "name": "supply",
      "outputs": [
        {
          "internalType": "uint256",
          "name": "",
          "type": "uint256"
        }
      ],
      "stateMutability": "view",
      "type": "function",
      "constant": true
    },
    {
      "inputs": [],
      "name": "symbol",
      "outputs": [
        {
          "internalType": "string",
          "name": "",
          "type": "string"
        }
      ],
      "stateMutability": "view",
      "type": "function",
      "constant": true
    },
    {
      "inputs": [],
      "name": "totalSupply",
      "outputs": [
        {
          "internalType": "uint256",
          "name": "",
          "type": "uint256"
        }
      ],
      "stateMutability": "view",
      "type": "function",
      "constant": true
    },
    {
      "inputs": [
        {
          "internalType": "address",
          "name": "to",
          "type": "address"
        },
        {
          "internalType": "uint256",
          "name": "amount",
          "type": "uint256"
        }
      ],
      "name": "transfer",
      "outputs": [
        {
          "internalType": "bool",
          "name": "",
          "type": "bool"
        }
      ],
      "stateMutability": "nonpayable",
      "type": "function"
    },
    {
      "inputs": [
        {
          "internalType": "address",
          "name": "from",
          "type": "address"
        },
        {
          "internalType": "address",
          "name": "to",
          "type": "address"
        },
        {
          "internalType": "uint256",
          "name": "amount",
          "type": "uint256"
        }
      ],
      "name": "transferFrom",
      "outputs": [
        {
          "internalType": "bool",
          "name": "",
          "type": "bool"
        }
      ],
      "stateMutability": "nonpayable",
      "type": "function"
    },
    {
      "inputs": [
        {
          "internalType": "address",
          "name": "newOwner",
          "type": "address"
        }
      ],
      "name": "transferOwnership",
      "outputs": [],
      "stateMutability": "nonpayable",
      "type": "function"
    },
    {
      "inputs": [
        {
          "internalType": "uint256",
          "name": "numTokens",
          "type": "uint256"
        }
      ],
      "name": "mint",
      "outputs": [],
      "stateMutability": "nonpayable",
      "type": "function"
    }
  ],
  "bytecode": "0x61014060405268056bc75e2d63100000600b553480156200001f57600080fd5b506040518060400160405280600f81526020016e23b7bb32b93730b731b2aa37b5b2b760891b81525080604051806040016040528060018152602001603160f81b8152506040518060400160405280600f81526020016e23b7bb32b93730b731b2aa37b5b2b760891b815250604051806040016040528060038152602001624d544b60e81b8152508160039080519060200190620000bf929190620007fa565b508051620000d5906004906020840190620007fa565b5050825160209384012082519284019290922060e08390526101008190524660a0818152604080517f8b73c3c69bb8fe3d512ecc4cf759cc79239f7b179b0ffacaa9a75d522b39400f818901819052818301979097526060810194909452608080850193909352308483018190528151808603909301835260c094850190915281519190960120905292909252610120525062000174905033620001aa565b620001a473746858649ec117c6d6ecd299b4eadc76b24f78f56004600b546200019e9190620008ac565b620001fc565b62000956565b600a80546001600160a01b038381166001600160a01b0319831681179093556040519116919082907f8be0079c531659141344cd1fd0a4f28419497f9722a3daafe3b4186f6b6457e090600090a35050565b6200021382826200021760201b62000bed1760201c565b5050565b6200022e8282620002ce60201b62000c7d1760201c565b6001600160e01b0362000242620003bd8216565b1115620002af5760405162461bcd60e51b815260206004820152603060248201527f4552433230566f7465733a20746f74616c20737570706c79207269736b73206f60448201526f766572666c6f77696e6720766f74657360801b60648201526084015b60405180910390fd5b620002c8600962000d68620003c360201b1783620003d8565b50505050565b6001600160a01b038216620003265760405162461bcd60e51b815260206004820152601f60248201527f45524332303a206d696e7420746f20746865207a65726f2061646472657373006044820152606401620002a6565b80600260008282546200033a9190620008cf565b90915550506001600160a01b0382166000908152602081905260408120805483929062000369908490620008cf565b90915550506040518181526001600160a01b038316906000907fddf252ad1be2c89b69c2b068fc378daa952ba7f163c4a11628f55a4df523b3ef9060200160405180910390a362000213600083836200058f565b60025490565b6000620003d18284620008cf565b9392505050565b8254600090819080156200042a5785620003f4600183620008ea565b8154811062000407576200040762000904565b60009182526020909120015464010000000090046001600160e01b03166200042d565b60005b6001600160e01b031692506200044483858760201c565b9150600081118015620004885750438662000461600184620008ea565b8154811062000474576200047462000904565b60009182526020909120015463ffffffff16145b15620004fc57620004a482620005a760201b62000d741760201c565b86620004b2600184620008ea565b81548110620004c557620004c562000904565b9060005260206000200160000160046101000a8154816001600160e01b0302191690836001600160e01b0316021790555062000581565b8560405180604001604052806200051e436200061660201b62000de11760201c565b63ffffffff1681526020016200053f85620005a760201b62000d741760201c565b6001600160e01b0390811690915282546001810184556000938452602093849020835194909301519091166401000000000263ffffffff909316929092179101555b50935093915050565b505050565b6200058a8383836200067d60201b62000e461760201c565b60006001600160e01b03821115620006125760405162461bcd60e51b815260206004820152602760248201527f53616665436173743a2076616c756520646f65736e27742066697420696e20326044820152663234206269747360c81b6064820152608401620002a6565b5090565b600063ffffffff821115620006125760405162461bcd60e51b815260206004820152602660248201527f53616665436173743a2076616c756520646f65736e27742066697420696e203360448201526532206269747360d01b6064820152608401620002a6565b620006958383836200058a60201b62000e781760201c565b6001600160a01b038381166000908152600760205260408082205485841683529120546200058a92918216911683818314801590620006d45750600081115b156200058a576001600160a01b0383161562000761576001600160a01b0383166000908152600860209081526040822082916200071e9190620007ec901b62000e7d1785620003d8565b91509150846001600160a01b0316600080516020620027bf833981519152838360405162000756929190918252602082015260400190565b60405180910390a250505b6001600160a01b038216156200058a576001600160a01b038216600090815260086020908152604082208291620007a59190620003c3901b62000d681785620003d8565b91509150836001600160a01b0316600080516020620027bf8339815191528383604051620007dd929190918252602082015260400190565b60405180910390a25050505050565b6000620003d18284620008ea565b82805462000808906200091a565b90600052602060002090601f0160209004810192826200082c576000855562000877565b82601f106200084757805160ff191683800117855562000877565b8280016001018555821562000877579182015b82811115620008775782518255916020019190600101906200085a565b50620006129291505b8082111562000612576000815560010162000880565b634e487b7160e01b600052601160045260246000fd5b600082620008ca57634e487b7160e01b600052601260045260246000fd5b500490565b60008219821115620008e557620008e562000896565b500190565b600082821015620008ff57620008ff62000896565b500390565b634e487b7160e01b600052603260045260246000fd5b600181811c908216806200092f57607f821691505b6020821081036200095057634e487b7160e01b600052602260045260246000fd5b50919050565b60805160a05160c05160e0516101005161012051611e19620009a6600039600061127f015260006112ce015260006112a9015260006112020152600061122c015260006112560152611e196000f3fe608060405234801561001057600080fd5b50600436106101a95760003560e01c8063715018a6116100f9578063a457c2d711610097578063d505accf11610071578063d505accf146103aa578063dd62ed3e146103bd578063f1127ed8146103d0578063f2fde38b1461040d57600080fd5b8063a457c2d714610371578063a9059cbb14610384578063c3cda5201461039757600080fd5b80638e539e8c116100d35780638e539e8c1461033057806395d89b41146103435780639ab24eb01461034b578063a0712d681461035e57600080fd5b8063715018a6146103045780637ecebe001461030c5780638da5cb5b1461031f57600080fd5b80633644e51511610166578063587cde1e11610140578063587cde1e1461025a5780635c19a95c1461029e5780636fcfff45146102b357806370a08231146102db57600080fd5b80633644e5151461022c57806339509351146102345780633a46b1a81461024757600080fd5b8063047fc9aa146101ae57806306fdde03146101ca578063095ea7b3146101df57806318160ddd1461020257806323b872dd1461020a578063313ce5671461021d575b600080fd5b6101b7600b5481565b6040519081526020015b60405180910390f35b6101d2610420565b6040516101c19190611acb565b6101f26101ed366004611b3c565b6104b2565b60405190151581526020016101c1565b6002546101b7565b6101f2610218366004611b66565b6104ca565b604051601281526020016101c1565b6101b76104ee565b6101f2610242366004611b3c565b6104fd565b6101b7610255366004611b3c565b61051f565b610286610268366004611ba2565b6001600160a01b039081166000908152600760205260409020541690565b6040516001600160a01b0390911681526020016101c1565b6102b16102ac366004611ba2565b61059e565b005b6102c66102c1366004611ba2565b6105ab565b60405163ffffffff90911681526020016101c1565b6101b76102e9366004611ba2565b6001600160a01b031660009081526020819052604090205490565b6102b16105d3565b6101b761031a366004611ba2565b610639565b600a546001600160a01b0316610286565b6101b761033e366004611bbd565b610657565b6101d26106b3565b6101b7610359366004611ba2565b6106c2565b6102b161036c366004611bbd565b610749565b6101f261037f366004611b3c565b610753565b6101f2610392366004611b3c565b6107ce565b6102b16103a5366004611be7565b6107dc565b6102b16103b8366004611c3f565b610912565b6101b76103cb366004611ca9565b610a76565b6103e36103de366004611cdc565b610aa1565b60408051825163ffffffff1681526020928301516001600160e01b031692810192909252016101c1565b6102b161041b366004611ba2565b610b25565b60606003805461042f90611d1c565b80601f016020809104026020016040519081016040528092919081815260200182805461045b90611d1c565b80156104a85780601f1061047d576101008083540402835291602001916104a8565b820191906000526020600020905b81548152906001019060200180831161048b57829003601f168201915b5050505050905090565b6000336104c0818585610e89565b5060019392505050565b6000336104d8858285610fad565b6104e3858585611021565b506001949350505050565b60006104f86111f5565b905090565b6000336104c08185856105108383610a76565b61051a9190611d66565b610e89565b60004382106105755760405162461bcd60e51b815260206004820152601f60248201527f4552433230566f7465733a20626c6f636b206e6f7420796574206d696e65640060448201526064015b60405180910390fd5b6001600160a01b0383166000908152600860205260409020610597908361131c565b9392505050565b6105a833826113d9565b50565b6001600160a01b0381166000908152600860205260408120546105cd90610de1565b92915050565b600a546001600160a01b0316331461062d5760405162461bcd60e51b815260206004820181905260248201527f4f776e61626c653a2063616c6c6572206973206e6f7420746865206f776e6572604482015260640161056c565b6106376000611452565b565b6001600160a01b0381166000908152600560205260408120546105cd565b60004382106106a85760405162461bcd60e51b815260206004820152601f60248201527f4552433230566f7465733a20626c6f636b206e6f7420796574206d696e656400604482015260640161056c565b6105cd60098361131c565b60606004805461042f90611d1c565b6001600160a01b0381166000908152600860205260408120548015610736576001600160a01b0383166000908152600860205260409020610704600183611d7e565b8154811061071457610714611d95565b60009182526020909120015464010000000090046001600160e01b0316610739565b60005b6001600160e01b03169392505050565b6105a833826114a4565b600033816107618286610a76565b9050838110156107c15760405162461bcd60e51b815260206004820152602560248201527f45524332303a2064656372656173656420616c6c6f77616e63652062656c6f77604482015264207a65726f60d81b606482015260840161056c565b6104e38286868403610e89565b6000336104c0818585611021565b8342111561082c5760405162461bcd60e51b815260206004820152601d60248201527f4552433230566f7465733a207369676e61747572652065787069726564000000604482015260640161056c565b604080517fe48329057bfd03d55e49b547132e39cffd9c1820ad7b9d4c5307691425d15adf60208201526001600160a01b0388169181019190915260608101869052608081018590526000906108a69061089e9060a001604051602081830303815290604052805190602001206114ae565b8585856114fc565b90506108b181611524565b86146108ff5760405162461bcd60e51b815260206004820152601960248201527f4552433230566f7465733a20696e76616c6964206e6f6e636500000000000000604482015260640161056c565b61090981886113d9565b50505050505050565b834211156109625760405162461bcd60e51b815260206004820152601d60248201527f45524332305065726d69743a206578706972656420646561646c696e65000000604482015260640161056c565b60007f6e71edae12b1b97f4d1f60370fef10105fa2faae0126114a169c64845d6126c98888886109918c611524565b6040805160208101969096526001600160a01b0394851690860152929091166060840152608083015260a082015260c0810186905260e00160405160208183030381529060405280519060200120905060006109ec826114ae565b905060006109fc828787876114fc565b9050896001600160a01b0316816001600160a01b031614610a5f5760405162461bcd60e51b815260206004820152601e60248201527f45524332305065726d69743a20696e76616c6964207369676e61747572650000604482015260640161056c565b610a6a8a8a8a610e89565b50505050505050505050565b6001600160a01b03918216600090815260016020908152604080832093909416825291909152205490565b60408051808201909152600080825260208201526001600160a01b0383166000908152600860205260409020805463ffffffff8416908110610ae557610ae5611d95565b60009182526020918290206040805180820190915291015463ffffffff8116825264010000000090046001600160e01b0316918101919091529392505050565b600a546001600160a01b03163314610b7f5760405162461bcd60e51b815260206004820181905260248201527f4f776e61626c653a2063616c6c6572206973206e6f7420746865206f776e6572604482015260640161056c565b6001600160a01b038116610be45760405162461bcd60e51b815260206004820152602660248201527f4f776e61626c653a206e6577206f776e657220697320746865207a65726f206160448201526564647265737360d01b606482015260840161056c565b6105a881611452565b610bf78282610c7d565b6002546001600160e01b031015610c695760405162461bcd60e51b815260206004820152603060248201527f4552433230566f7465733a20746f74616c20737570706c79207269736b73206f60448201526f766572666c6f77696e6720766f74657360801b606482015260840161056c565b610c776009610d688361154c565b50505050565b6001600160a01b038216610cd35760405162461bcd60e51b815260206004820152601f60248201527f45524332303a206d696e7420746f20746865207a65726f206164647265737300604482015260640161056c565b8060026000828254610ce59190611d66565b90915550506001600160a01b03821660009081526020819052604081208054839290610d12908490611d66565b90915550506040518181526001600160a01b038316906000907fddf252ad1be2c89b69c2b068fc378daa952ba7f163c4a11628f55a4df523b3ef9060200160405180910390a3610d64600083836116c5565b5050565b60006105978284611d66565b60006001600160e01b03821115610ddd5760405162461bcd60e51b815260206004820152602760248201527f53616665436173743a2076616c756520646f65736e27742066697420696e20326044820152663234206269747360c81b606482015260840161056c565b5090565b600063ffffffff821115610ddd5760405162461bcd60e51b815260206004820152602660248201527f53616665436173743a2076616c756520646f65736e27742066697420696e203360448201526532206269747360d01b606482015260840161056c565b6001600160a01b03838116600090815260076020526040808220548584168352912054610e78929182169116836116d0565b505050565b60006105978284611d7e565b6001600160a01b038316610eeb5760405162461bcd60e51b8152602060048201526024808201527f45524332303a20617070726f76652066726f6d20746865207a65726f206164646044820152637265737360e01b606482015260840161056c565b6001600160a01b038216610f4c5760405162461bcd60e51b815260206004820152602260248201527f45524332303a20617070726f766520746f20746865207a65726f206164647265604482015261737360f01b606482015260840161056c565b6001600160a01b0383811660008181526001602090815260408083209487168084529482529182902085905590518481527f8c5be1e5ebec7d5bd14f71427d1e84f3dd0314c0f7b2291e5b200ac8c7c3b925910160405180910390a3505050565b6000610fb98484610a76565b90506000198114610c7757818110156110145760405162461bcd60e51b815260206004820152601d60248201527f45524332303a20696e73756666696369656e7420616c6c6f77616e6365000000604482015260640161056c565b610c778484848403610e89565b6001600160a01b0383166110855760405162461bcd60e51b815260206004820152602560248201527f45524332303a207472616e736665722066726f6d20746865207a65726f206164604482015264647265737360d81b606482015260840161056c565b6001600160a01b0382166110e75760405162461bcd60e51b815260206004820152602360248201527f45524332303a207472616e7366657220746f20746865207a65726f206164647260448201526265737360e81b606482015260840161056c565b6001600160a01b0383166000908152602081905260409020548181101561115f5760405162461bcd60e51b815260206004820152602660248201527f45524332303a207472616e7366657220616d6f756e7420657863656564732062604482015265616c616e636560d01b606482015260840161056c565b6001600160a01b03808516600090815260208190526040808220858503905591851681529081208054849290611196908490611d66565b92505081905550826001600160a01b0316846001600160a01b03167fddf252ad1be2c89b69c2b068fc378daa952ba7f163c4a11628f55a4df523b3ef846040516111e291815260200190565b60405180910390a3610c778484846116c5565b6000306001600160a01b037f00000000000000000000000000000000000000000000000000000000000000001614801561124e57507f000000000000000000000000000000000000000000000000000000000000000046145b1561127857507f000000000000000000000000000000000000000000000000000000000000000090565b50604080517f00000000000000000000000000000000000000000000000000000000000000006020808301919091527f0000000000000000000000000000000000000000000000000000000000000000828401527f000000000000000000000000000000000000000000000000000000000000000060608301524660808301523060a0808401919091528351808403909101815260c0909201909252805191012090565b8154600090815b81811015611380576000611337828461180d565b90508486828154811061134c5761134c611d95565b60009182526020909120015463ffffffff16111561136c5780925061137a565b611377816001611d66565b91505b50611323565b81156113c45784611392600184611d7e565b815481106113a2576113a2611d95565b60009182526020909120015464010000000090046001600160e01b03166113c7565b60005b6001600160e01b031695945050505050565b6001600160a01b038281166000818152600760208181526040808420805485845282862054949093528787166001600160a01b03198416811790915590519190951694919391928592917f3134e8a2e6d97e929a7e54011ea5485d7d196dd5f0ba4d4ef95803e8e3fc257f9190a4610c778284836116d0565b600a80546001600160a01b038381166001600160a01b0319831681179093556040519116919082907f8be0079c531659141344cd1fd0a4f28419497f9722a3daafe3b4186f6b6457e090600090a35050565b610d648282610bed565b60006105cd6114bb6111f5565b8360405161190160f01b6020820152602281018390526042810182905260009060620160405160208183030381529060405280519060200120905092915050565b600080600061150d87878787611828565b9150915061151a81611915565b5095945050505050565b6001600160a01b03811660009081526005602052604090208054600181018255905b50919050565b8254600090819080156115975785611565600183611d7e565b8154811061157557611575611d95565b60009182526020909120015464010000000090046001600160e01b031661159a565b60005b6001600160e01b031692506115b383858763ffffffff16565b91506000811180156115f1575043866115cd600184611d7e565b815481106115dd576115dd611d95565b60009182526020909120015463ffffffff16145b15611651576115ff82610d74565b8661160b600184611d7e565b8154811061161b5761161b611d95565b9060005260206000200160000160046101000a8154816001600160e01b0302191690836001600160e01b031602179055506116bc565b85604051806040016040528061166643610de1565b63ffffffff16815260200161167a85610d74565b6001600160e01b0390811690915282546001810184556000938452602093849020835194909301519091166401000000000263ffffffff909316929092179101555b50935093915050565b610e78838383610e46565b816001600160a01b0316836001600160a01b0316141580156116f25750600081115b15610e78576001600160a01b03831615611780576001600160a01b0383166000908152600860205260408120819061172d90610e7d8561154c565b91509150846001600160a01b03167fdec2bacdd2f05b59de34da9b523dff8be42e5e38e818c82fdb0bae774387a7248383604051611775929190918252602082015260400190565b60405180910390a250505b6001600160a01b03821615610e78576001600160a01b038216600090815260086020526040812081906117b690610d688561154c565b91509150836001600160a01b03167fdec2bacdd2f05b59de34da9b523dff8be42e5e38e818c82fdb0bae774387a72483836040516117fe929190918252602082015260400190565b60405180910390a25050505050565b600061181c6002848418611dab565b61059790848416611d66565b6000807f7fffffffffffffffffffffffffffffff5d576e7357a4501ddfe92f46681b20a083111561185f575060009050600361190c565b8460ff16601b1415801561187757508460ff16601c14155b15611888575060009050600461190c565b6040805160008082526020820180845289905260ff881692820192909252606081018690526080810185905260019060a0016020604051602081039080840390855afa1580156118dc573d6000803e3d6000fd5b5050604051601f1901519150506001600160a01b0381166119055760006001925092505061190c565b9150600090505b94509492505050565b600081600481111561192957611929611dcd565b036119315750565b600181600481111561194557611945611dcd565b036119925760405162461bcd60e51b815260206004820152601860248201527f45434453413a20696e76616c6964207369676e61747572650000000000000000604482015260640161056c565b60028160048111156119a6576119a6611dcd565b036119f35760405162461bcd60e51b815260206004820152601f60248201527f45434453413a20696e76616c6964207369676e6174757265206c656e67746800604482015260640161056c565b6003816004811115611a0757611a07611dcd565b03611a5f5760405162461bcd60e51b815260206004820152602260248201527f45434453413a20696e76616c6964207369676e6174757265202773272076616c604482015261756560f01b606482015260840161056c565b6004816004811115611a7357611a73611dcd565b036105a85760405162461bcd60e51b815260206004820152602260248201527f45434453413a20696e76616c6964207369676e6174757265202776272076616c604482015261756560f01b606482015260840161056c565b600060208083528351808285015260005b81811015611af857858101830151858201604001528201611adc565b81811115611b0a576000604083870101525b50601f01601f1916929092016040019392505050565b80356001600160a01b0381168114611b3757600080fd5b919050565b60008060408385031215611b4f57600080fd5b611b5883611b20565b946020939093013593505050565b600080600060608486031215611b7b57600080fd5b611b8484611b20565b9250611b9260208501611b20565b9150604084013590509250925092565b600060208284031215611bb457600080fd5b61059782611b20565b600060208284031215611bcf57600080fd5b5035919050565b803560ff81168114611b3757600080fd5b60008060008060008060c08789031215611c0057600080fd5b611c0987611b20565b95506020870135945060408701359350611c2560608801611bd6565b92506080870135915060a087013590509295509295509295565b600080600080600080600060e0888a031215611c5a57600080fd5b611c6388611b20565b9650611c7160208901611b20565b95506040880135945060608801359350611c8d60808901611bd6565b925060a0880135915060c0880135905092959891949750929550565b60008060408385031215611cbc57600080fd5b611cc583611b20565b9150611cd360208401611b20565b90509250929050565b60008060408385031215611cef57600080fd5b611cf883611b20565b9150602083013563ffffffff81168114611d1157600080fd5b809150509250929050565b600181811c90821680611d3057607f821691505b60208210810361154657634e487b7160e01b600052602260045260246000fd5b634e487b7160e01b600052601160045260246000fd5b60008219821115611d7957611d79611d50565b500190565b600082821015611d9057611d90611d50565b500390565b634e487b7160e01b600052603260045260246000fd5b600082611dc857634e487b7160e01b600052601260045260246000fd5b500490565b634e487b7160e01b600052602160045260246000fdfea2646970667358221220dc89f287899cdff2640cca4c5a61848cb082f009277e0e5bcd6bdf2d85644f4564736f6c634300080d0033dec2bacdd2f05b59de34da9b523dff8be42e5e38e818c82fdb0bae774387a724",
  "immutableReferences": {
    "7243": [
      {
        "length": 32,
        "start": 4694
      }
    ],
    "7245": [
      {
        "length": 32,
        "start": 4652
      }
    ],
    "7247": [
      {
        "length": 32,
        "start": 4610
      }
    ],
    "7249": [
      {
        "length": 32,
        "start": 4777
      }
    ],
    "7251": [
      {
        "length": 32,
        "start": 4814
      }
    ],
    "7253": [
      {
        "length": 32,
        "start": 4735
      }
    ]
  },
  "source": "//SPDX-License-Identifier: UNLICENSED\r\n\r\npragma solidity ^0.8.0;\r\n\r\nimport \"../node_modules/@openzeppelin/contracts/token/ERC20/extensions/ERC20Votes.sol\";\r\nimport \"../node_modules/@openzeppelin/contracts/access/Ownable.sol\";\r\n\r\n\r\ncontract GovernanceToken is ERC20Votes, Ownable{\r\n    \r\n    uint256 public supply = 100000000000000000000; //100 tokens\r\n\r\n    //Token used for governance\r\n    constructor()\r\n        ERC20(\"GovernanceToken\", \"MTK\")  \r\n        ERC20Permit(\"GovernanceToken\"){\r\n            _mint(0x746858649ec117C6D6ecD299b4EAdc76B24f78f5, supply/4);\r\n        }\r\n\r\n    function mint(uint256 numTokens) public {\r\n        _mint(msg.sender, numTokens); \r\n    }\r\n\r\n    //Required overrides by solidity\r\n\r\n    // ***** afterTokenTransfer, mint, burn *****\r\n    function _afterTokenTransfer(address from, address to, uint256 amount) internal override(ERC20Votes){\r\n        super._afterTokenTransfer(from, to, amount);\r\n    }\r\n\r\n    function _mint(address account, uint256 amount) internal override(ERC20Votes){\r\n        super._mint(account, amount);\r\n    }\r\n\r\n    function _burn(address account, uint256 amount) internal override(ERC20Votes){\r\n        super._burn(account, amount);\r\n    }\r\n}",
  "sourcePath": "D:\\Documentos\\Trabajos\\timelock_test\\contracts\\GovernanceToken.sol",
  "compiler": {
    "name": "solc",
    "version": "0.8.13+commit.abaa5c0e.Emscripten.clang"
  },
  "schemaVersion": "3.4.7",
  "updatedAt": "2022-06-03T16:00:34.655Z",
  "networkType": "ethereum",
  "devdoc": {
    "kind": "dev",
    "methods": {
      "DOMAIN_SEPARATOR()": {
        "details": "See {IERC20Permit-DOMAIN_SEPARATOR}."
      },
      "allowance(address,address)": {
        "details": "See {IERC20-allowance}."
      },
      "approve(address,uint256)": {
        "details": "See {IERC20-approve}. NOTE: If `amount` is the maximum `uint256`, the allowance is not updated on `transferFrom`. This is semantically equivalent to an infinite approval. Requirements: - `spender` cannot be the zero address."
      },
      "balanceOf(address)": {
        "details": "See {IERC20-balanceOf}."
      },
      "checkpoints(address,uint32)": {
        "details": "Get the `pos`-th checkpoint for `account`."
      },
      "decimals()": {
        "details": "Returns the number of decimals used to get its user representation. For example, if `decimals` equals `2`, a balance of `505` tokens should be displayed to a user as `5.05` (`505 / 10 ** 2`). Tokens usually opt for a value of 18, imitating the relationship between Ether and Wei. This is the value {ERC20} uses, unless this function is overridden; NOTE: This information is only used for _display_ purposes: it in no way affects any of the arithmetic of the contract, including {IERC20-balanceOf} and {IERC20-transfer}."
      },
      "decreaseAllowance(address,uint256)": {
        "details": "Atomically decreases the allowance granted to `spender` by the caller. This is an alternative to {approve} that can be used as a mitigation for problems described in {IERC20-approve}. Emits an {Approval} event indicating the updated allowance. Requirements: - `spender` cannot be the zero address. - `spender` must have allowance for the caller of at least `subtractedValue`."
      },
      "delegate(address)": {
        "details": "Delegate votes from the sender to `delegatee`."
      },
      "delegateBySig(address,uint256,uint256,uint8,bytes32,bytes32)": {
        "details": "Delegates votes from signer to `delegatee`"
      },
      "delegates(address)": {
        "details": "Get the address `account` is currently delegating to."
      },
      "getPastTotalSupply(uint256)": {
        "details": "Retrieve the `totalSupply` at the end of `blockNumber`. Note, this value is the sum of all balances. It is but NOT the sum of all the delegated votes! Requirements: - `blockNumber` must have been already mined"
      },
      "getPastVotes(address,uint256)": {
        "details": "Retrieve the number of votes for `account` at the end of `blockNumber`. Requirements: - `blockNumber` must have been already mined"
      },
      "getVotes(address)": {
        "details": "Gets the current votes balance for `account`"
      },
      "increaseAllowance(address,uint256)": {
        "details": "Atomically increases the allowance granted to `spender` by the caller. This is an alternative to {approve} that can be used as a mitigation for problems described in {IERC20-approve}. Emits an {Approval} event indicating the updated allowance. Requirements: - `spender` cannot be the zero address."
      },
      "name()": {
        "details": "Returns the name of the token."
      },
      "nonces(address)": {
        "details": "See {IERC20Permit-nonces}."
      },
      "numCheckpoints(address)": {
        "details": "Get number of checkpoints for `account`."
      },
      "owner()": {
        "details": "Returns the address of the current owner."
      },
      "permit(address,address,uint256,uint256,uint8,bytes32,bytes32)": {
        "details": "See {IERC20Permit-permit}."
      },
      "renounceOwnership()": {
        "details": "Leaves the contract without owner. It will not be possible to call `onlyOwner` functions anymore. Can only be called by the current owner. NOTE: Renouncing ownership will leave the contract without an owner, thereby removing any functionality that is only available to the owner."
      },
      "symbol()": {
        "details": "Returns the symbol of the token, usually a shorter version of the name."
      },
      "totalSupply()": {
        "details": "See {IERC20-totalSupply}."
      },
      "transfer(address,uint256)": {
        "details": "See {IERC20-transfer}. Requirements: - `to` cannot be the zero address. - the caller must have a balance of at least `amount`."
      },
      "transferFrom(address,address,uint256)": {
        "details": "See {IERC20-transferFrom}. Emits an {Approval} event indicating the updated allowance. This is not required by the EIP. See the note at the beginning of {ERC20}. NOTE: Does not update the allowance if the current allowance is the maximum `uint256`. Requirements: - `from` and `to` cannot be the zero address. - `from` must have a balance of at least `amount`. - the caller must have allowance for ``from``'s tokens of at least `amount`."
      },
      "transferOwnership(address)": {
        "details": "Transfers ownership of the contract to a new account (`newOwner`). Can only be called by the current owner."
      }
    },
    "version": 1
  },
  "userdoc": {
    "kind": "user",
    "methods": {},
    "version": 1
  }
}